:100000000C944C000C9463000C9463000C946300FB
:100010000C9463000C9463000C9463000C946300D4
:100020000C9463000C9463000C9463000C946300C4
:100030000C9463000C9463000C9463000C946300B4
:100040000C9463000C9463000C9463000C946300A4
:100050000C9463000C9463000C9463000C94630094
:100060000C9463000C9463000C9463000C94630084
:100070000C9463000C9463000C9463000C94630074
:100080000C9463000C9463000C9463000C94630064
:100090000C9463000C94630011241FBECFEFD0E2D8
:1000A000DEBFCDBF11E0A0E0B1E0E4EFF0E000E0A2
:1000B0000BBF02C007900D92A030B107D9F70E9484
:1000C00065000C9478000C94000028EC30E02F9A26
:1000D00088EE93E0F9013197F1F70197D9F72F985E
:1000E00088EE93E0F9013197F1F70197D9F7EFCF57
:0400F000F894FFCFB2
:00000001FF
