:100000000C943A010C9459010C9459010C94590127
:100010000C9459010C9459010C9459010C945901F8
:100020000C9459010C9459010C9459010C945901E8
:100030000C9459010C9459010C9459010C945901D8
:100040000C9459010C9459010C9459010C945901C8
:100050000C9459010C9459010C9459010C945901B8
:100060000C9459010C9459010C9459010C945901A8
:100070000C9459010C9459010C9459010C94590198
:100080000C9459010C9459010C9459010C94590188
:100090000C9459010C945901000000000000005F0D
:1000A00000000003000300143E143E14242A7F2A9B
:1000B000124333086661364955225000050300009B
:1000C000001C2241000041221C0014083E081408B4
:1000D000083E0808005030000008080808080060C2
:1000E00060000020100804023E5149453E00040211
:1000F0007F00426151494622414949361814127F16
:100100001027454545393E494949320101710907E2
:100110003649494936264949493E003636000000ED
:10012000563600000814224100141414141400411F
:1001300022140802015109063E4159555E7E090903
:10014000097E7F494949363E414141227F41414133
:100150003E7F494949417F090909013E4141493AE8
:100160007F0808087F00417F4100304040403F7FCA
:10017000081422417F404040407F020C027F7F02F2
:1001800004087F3E4141413E7F090909061E2121A5
:10019000215E7F09090976264949493201017F011B
:1001A000013F4040403F1F2040201F7F2010207F04
:1001B00041221C224107087008076151494543004C
:1001C0007F41000002040810200000417F0004026B
:1001D0000102044040404040000102040020545409
:1001E00054787F4444443838444444443844444474
:1001F0007F385454541804047E0505085454543C64
:100200007F0804047800447D40002040443D007F86
:100210001028440000417F40007C047804787C086A
:1002200004047838444444387C1414140808141422
:10023000147C007C080404485454542004043F44B3
:10024000443C4040207C1C2040201C3C4030403C32
:1002500044281028440C5050503C4464544C4400F2
:100260000836414100007F0000414136080002018C
:100270000204020011241FBECFEFD0E2DEBFCDBFCB
:1002800012E0A0E0B1E0EEECFAE100E00BBF02C04A
:1002900007900D92A830B107D9F712E0A8E0B2E0BC
:1002A00001C01D92AA31B107E1F70E9465050C94C7
:1002B000650D0C94000093E89093B00091E090934A
:1002C000B1008093B30008959C0190931102809334
:1002D000100286E390E0809300402115310589F4F7
:1002E00080EF90E090930D0280930C0280E491E007
:1002F00090930F0280930E0288E490E08093004177
:100300003BC02130310589F480E491E090930D02E7
:1003100080930C0280EF90E090930F0280930E0286
:1003200088EE90E08093004127C02230310589F4A7
:1003300080EF90E090930D0280930C0280E491E0B6
:1003400090930F0280930E0288E890E08093004122
:1003500013C02330310581F480E491E090930D02C5
:1003600080930C0280EF90E090930F0280930E0236
:1003700088E290E0809300418AE290E08093004020
:1003800020E030E0309300412093004180910C0246
:1003900090910D02019790930041809300418BE270
:1003A00090E0809300403093004120930041809181
:1003B0000E0290910F0201979093004180930041AB
:1003C00008951F93682F873718F010E066E711C073
:1003D000883010F468E00CC08D3310F010E009C0D4
:1003E0008F3110F011E005C0803110F012E001C033
:1003F00013E081EB90E0809300401093004170E0A7
:10040000882777FD8095982F0E94870A9B01AC0171
:1004100060E070E080EF94E40E944B090E947B064C
:1004200070E002C0759567951A95E2F760930041F8
:100430001F9108950F931F93DF93CF93CDB7DEB72E
:1004400028970FB6F894DEBF0FBECDBF29833A833D
:100450004B835C836D837E838F83988769817A81E8
:100460002B813C81ED81FE814F8158858AE290E0AD
:1004700080930040709300416093004130930041AD
:10048000209300418BE290E080930040F093004184
:10049000E093004150930041409300418CE290E092
:1004A000809300402F5F3F4F261B370B4F5F5F4FFE
:1004B0004E1B5F0B24173507C8F4842F877090E01C
:1004C000829FB001839F700D929F700D1124F3E005
:1004D00056954795FA95E1F7842F90E0829FF001B9
:1004E000839FF00D929FF00D112418C0822F87700A
:1004F00090E0849FB001859F700D949F700D112432
:10050000E3E036952795EA95E1F7822F90E0849F06
:10051000F001859FF00D949FF00D1124862F8770B8
:1005200005C0109300410093004181508823C9F712
:10053000CB0123E0969587952A95E1F78E0F9F1FB3
:1005400021C010930041009300411093004100939B
:10055000004110930041009300411093004100932B
:10056000004110930041009300411093004100931B
:10057000004110930041009300411093004100930B
:10058000004101970097E9F628960FB6F894DEBF70
:100590000FBECDBFCF91DF911F910F910895EF92C4
:1005A000FF920F931F93DF93CF93CDB7DEB72897BA
:1005B0000FB6F894DEBF0FBECDBF29833A834B83BD
:1005C0005C836D837E838F83988729813A81AB8199
:1005D000BC81ED80FE806F8178858AE290E0809317
:1005E00000403093004120930041B0930041A0931C
:1005F00000418BE290E080930040F0920041E09255
:10060000004170930041609300418CE290E0809340
:1006100000400FC0F801819191918F0190930041AA
:10062000809300414F5F5F4F6417750798F72F5F06
:100630003F4FA217B30710F0A701F6CF28960FB6C9
:10064000F894DEBF0FBECDBFCF91DF911F910F9108
:10065000FF90EF9008950F931F93DF93CF93CDB743
:10066000DEB728970FB6F894DEBF0FBECDBF10924D
:10067000130210921202109215021092140220918D
:100680000C0230910D022150304080910E02909169
:100690000F0201971A821982422F3C832B831E82FC
:1006A0001D8298878F830091180210911902298169
:1006B0003A815C816D817E8198850E941A0228961C
:1006C0000FB6F894DEBF0FBECDBFCF91DF911F9163
:1006D0000F91089586E08093750080E88093740000
:1006E0003F9A249A80ED97E00197F1F7479880E4CC
:1006F0009CE90197F1F7479A80EB94E028EC30E011
:10070000F9013197F1F70197D9F788E290E08093EA
:10071000004081E190E08093004088E592E028EC81
:1007200030E0F9013197F1F70197D9F741E050E056
:100730008BEC90E0809300404093004180EC90E08F
:100740008093004088E096E29093004180930041BE
:1007500020E130E081EC90E0809300402093004164
:1007600085EC90E0809300408EE395E39093004108
:100770008093004125EB30E087EC90E080930040CF
:100780002093004186EF90E0809300404093004129
:1007900080E090E0909300418093004125E530E0B7
:1007A0008AE390E0809300402093004181E090E054
:1007B0000E9464010E942B031092130210921202F5
:1007C000109215021092140210921902109218023F
:1007D0008FEF9FEF909317028093160289E290E0CB
:1007E0008093004084EF91E028EC30E0F9013197EC
:1007F000F1F70197D9F780E090E025E330E020930E
:1008000000408093004180916A00806280936A007A
:100810002C9A0895CF92DF92EF92FF920F931F933D
:10082000CF93DF93982F40911202509113028A01C7
:100830000C5F1F4F20911402309115028A30A9F4E9
:100840001092130210921202285F3F4F309315024C
:100850002093140280910E0290910F0228173907FD
:1008600008F489C00E942B0386C080528F3508F09F
:1008700082C0E901279685E09802F0011124E85032
:10088000F0408BE290E08093004030930041209351
:100890000041D0930041C0930041BAE2CB2ED12C4D
:1008A000ACE2EA2EF12C29C0C092004050930041E6
:1008B000409300415093004140930041E09200403A
:1008C000B491B901A1E013C08A2F8B2329F0809144
:1008D00016029091170204C080911802909119029B
:1008E00090930041809300416F5F7F4FAA0FC6171E
:1008F000D70750F731964F5F5F4F04171507A0F6E3
:100900008AE290E080930040509300414093004180
:1009100050930041409300418CE290E0809300406E
:100920000AC080911802909119029093004180931F
:1009300000412F5F3F4FC217D30798F780911202F3
:1009400090911302069690931302809312022091C5
:100950000C0230910D028217930768F01092130277
:1009600010921202809114029091150208969093B1
:10097000150280931402DF91CF911F910F91FF9088
:10098000EF90DF90CF9008951F93CF93DF93EC010A
:1009900010E003C00E940A041F5FFE01E10FF11D79
:1009A00080818823B9F7DF91CF911F9108959093AB
:1009B000130280931202709315026093140208953B
:1009C0009093170280931602709319026093180295
:1009D00008951F93CF93DF93EC01709313026093FC
:1009E0001202509315024093140210E003C00E94BB
:1009F0000A041F5FFE01E10FF11D80818823B9F712
:100A0000DF91CF911F910895EF92FF920F931F9363
:100A1000CF93DF93C0E0D0E010E8E12EF12C082F57
:100A200010E0C7010C2E02C0959587950A94E2F755
:100A300080239123892B11F081E301C08EE20E9473
:100A40000A042196C830D10561F7DF91CF911F913B
:100A50000F91FF90EF900895679909C081E090E0B1
:100A6000909309028093080221E030E00EC0679B5A
:100A70000AC08091080290910902892B21F01092FE
:100A800009021092080220E030E0C901089565993A
:100A900014C0659905C0649B03C021E030E00BC021
:100AA000659905C0649903C022E030E004C06599EF
:100AB00007C020E030E0C9010895649BEACFF9CF78
:100AC0006499F7CF23E030E0F6CF6F927F928F9258
:100AD0009F92AF92BF92CF92DF92EF92FF920F93CD
:100AE0001F93CF93DF930E946A038DE30E94E1017D
:100AF00081E090E00E9464016F98779A6D98759AF2
:100B00006C98749A78940F2EF0E0AF2EF0E0BF2E20
:100B1000F0E0CF2EFFE3DF2EF02DC8ECD0E00E94F6
:100B2000470500910A0210910B028017910709F402
:100B300049C00E94470501970817190751F0009115
:100B40000A0210910B020E94470503960817190725
:100B5000E1F40E94470590930B0280930A02C601BC
:100B6000B50120E030E040E050E00E94F70918169F
:100B70004CF5C601B5012DEC3CEC4CE45DE30E9464
:100B8000F3075B016C018CE41BC00E944705909346
:100B90000B0280930A02C601B50120E030E040E874
:100BA0005FE30E94570A88236CF4C601B5012DEC5F
:100BB0003CEC4CE45DE30E9424085B016C0182E59F
:100BC0000E940A042C9AC601B50120E030E04AEFE9
:100BD00054E40E9451087B018C0120E030E040E8A1
:100BE0005FE30E94570A88231CF461E070E022C092
:100BF000C801B70120E03FEF4FE757E40E94F70933
:100C00001816A4F4C601B50120E030E040E251E43A
:100C10000E9451080E947B0605C0CE010197F1F7A2
:100C20006150704061157105C1F707C0C801B70177
:100C30000E947B06CB010197F1F72C9860E070E0F1
:100C400080E89FE3A60195010E94F3073B014C0158
:100C500020E030E04AEF54E40E9451087B018C010F
:100C600020E030E040E85FE30E94570A88231CF44C
:100C700061E070E022C0C801B70120E03FEF4FE71C
:100C800057E40E94F7091816A4F4C401B30120E048
:100C900030E040E251E40E9451080E947B0605C00A
:100CA000CE010197F1F76150704061157105C1F7F0
:100CB00036CFC801B7010E947B06CB010197F1F73F
:100CC0002ECF2CB130E085E0369527958A95E1F757
:100CD0002095309521703070C90108952CB130E015
:100CE00094E0369527959A95E1F7209530952170F7
:100CF0003070C9010895EF92FF920F931F937B010B
:100D00008C0120E030E040E05FE40E94270A882365
:100D10008CF0C801B70120E030E040E05FE40E94C1
:100D2000F3070E94E50A9B01AC012050304040408F
:100D3000504806C0C801B7010E94E50A9B01AC01FA
:100D4000B901CA011F910F91FF90EF900895A0E0A3
:100D5000B0E0EDEAF6E00C942E0DDC012B01FA0177
:100D60009C91923008F439C1EB018881823008F4FB
:100D700033C1943069F4843009F02FC111969C91ED
:100D800011978981981709F428C1A0E0B1E025C125
:100D9000843009F421C18230A9F4923009F01DC1D8
:100DA0009A01AD0188E0EA010990AE01E9010992DA
:100DB0009E018150C1F7E201898111969C9189239E
:100DC000818308C1923009F407C112962D903C909E
:100DD0001397EB018A819B811496AD90BD90CD90C5
:100DE000DC901797EC80FD800E811F819101281BFC
:100DF000390BB90137FF04C066277727621B730BD5
:100E0000603271050CF061C0121613066CF53701E3
:100E10004801062E04C096948794779467940A94A8
:100E2000D2F721E030E040E050E004C0220F331F51
:100E3000441F551F6A95D2F7215030404040504022
:100E40002E213F2140235123211531054105510514
:100E500021F021E030E040E050E079018A01E6280D
:100E6000F728082919293CC0232BD1F1260E371E5B
:100E700035014601062E04C09694879477946794B2
:100E80000A94D2F721E030E040E050E004C0220FA5
:100E9000331F441F551F6A95D2F721503040404000
:100EA00050402A213B214C215D212115310541056E
:100EB000510521F021E030E040E050E059016A01A5
:100EC000A628B728C828D9280BC0821593052CF06E
:100ED0001C01AA24BB24650103C0EE24FF24870162
:100EE00011969C91D20111968C91981709F445C0E6
:100EF000992339F0A80197012A193B094C095D098A
:100F000006C0A60195012E193F09400B510B57FD54
:100F100008C011823382228224833583468357831B
:100F20001DC081E081833382228288279927DC01DA
:100F3000821B930BA40BB50B84839583A683B78385
:100F40000DC0220F331F441F551F24833583468352
:100F50005783828193810197938382832481358192
:100F600046815781DA01C9010197A109B1098F5F53
:100F70009F4FAF4FBF4328F30BC091833382228230
:100F8000EA0CFB1C0C1D1D1DE482F58206831783F1
:100F900083E08083248135814681578157FF1AC0C1
:100FA000C901AA2797FDA095BA2F81709070A070F3
:100FB000B0705695479537952795822B932BA42B88
:100FC000B52B84839583A683B78382819381019611
:100FD00093838283DF0101C0D201CD01CDB7DEB79B
:100FE000E2E10C944A0DA0E2B0E0E9EFF7E00C94E6
:100FF0003A0D69837A838B839C832D833E834F8351
:101000005887E9E0EE2EF12CEC0EFD1ECE01019684
:10101000B7010E945D0C8E010F5E1F4FCE01059639
:10102000B8010E945D0C8A8991E089278A8BC701EB
:10103000B801AE01475E5F4F0E94A7060E94880B71
:10104000A096E6E00C94560DA0E2B0E0EAE2F8E0EB
:101050000C943A0D69837A838B839C832D833E8322
:101060004F835887F9E0EF2EF12CEC0EFD1ECE01D8
:101070000196B7010E945D0C8E010F5E1F4FCE01DD
:101080000596B8010E945D0CC701B801AE01475E2C
:101090005F4F0E94A7060E94880BA096E6E00C9482
:1010A000560DA0E2B0E0E7E5F8E00C942E0D698360
:1010B0007A838B839C832D833E834F835887CE0115
:1010C0000196BE01675F7F4F0E945D0CCE010596C1
:1010D000BE016F5E7F4F0E945D0C9985923088F053
:1010E00089898230C8F0943019F4823051F404C0F8
:1010F000843029F4923081F480E091E0C6C09230CF
:1011000049F420E09A858A89981321E02A87CE0144
:101110000996BBC0823049F420E09A858A899813E9
:1011200021E02A8BCE014196B0C02D843E844F84AD
:1011300058886D887E888F88988CEE24FF248701DC
:10114000AA24BB24650140E050E060E070E0E0E0EC
:10115000F0E0C10181709070892BE9F0E60CF71C7A
:10116000081D191D9A01AB012A0D3B1D4C1D5D1D6B
:1011700080E090E0A0E0B0E0E614F704080519056F
:1011800020F481E090E0A0E0B0E0BA01A901480FAE
:10119000591F6A1F7B1FAA0CBB1CCC1CDD1C97FEB1
:1011A00008C081E090E0A0E0B0E0A82AB92ACA2AED
:1011B000DB2A3196E032F10549F0660C771C881C79
:1011C000991C5694479437942794C3CFFA85EA899B
:1011D0002B893C898B859C85280F391F2E5F3F4FBB
:1011E00017C0CA0181709070892B61F01695079520
:1011F000F794E79480E090E0A0E0B0E8E82AF92ACC
:101200000A2B1B2B76956795579547952F5F3F4F78
:1012100077FDE7CF0CC0440F551F661F771F17FDE2
:101220004160EE0CFF1C001F111F21503040403068
:1012300090E0590790E0690790E4790760F32B8FFD
:101240003C8FDB01CA018F779070A070B070803442
:101250009105A105B10561F447FD0AC0E114F1044F
:101260000105110529F0405C5F4F6F4F7F4F4078BB
:101270001A8EFE1711F081E08A8F4D8F5E8F6F8F6F
:1012800078A383E0898FCE0149960E94880BA096AF
:10129000E2E10C944A0DA8E1B0E0E1E5F9E00C943C
:1012A000360D69837A838B839C832D833E834F83A2
:1012B0005887B9E0EB2EF12CEC0EFD1ECE01019605
:1012C000B7010E945D0C8E010F5E1F4FCE01059687
:1012D000B8010E945D0C2985223008F47EC039894E
:1012E000323010F4B8017CC08A859A8989278A87B0
:1012F000243011F0223031F4231709F06EC060E081
:1013000071E06EC0343039F41D861E861F86188A3F
:101310001C861B8604C0323021F484E08987B70123
:101320005FC02B853C858B899C89281B390B3C87AA
:101330002B87ED84FE840F851889AD88BE88CF8801
:10134000D88CEA14FB040C051D0540F4EE0CFF1CC0
:10135000001F111F215030403C872B8720E030E0D8
:1013600040E050E080E090E0A0E0B0E460E070E0B9
:10137000EA14FB040C051D0540F0282B392B4A2BE1
:101380005B2BEA18FB080C091D09B695A7959795E4
:101390008795EE0CFF1C001F111F6F5F7F4F6F3191
:1013A000710531F7DA01C9018F779070A070B070C4
:1013B00080349105A105B10561F427FD0AC0E1144F
:1013C000F1040105110529F0205C3F4F4F4F5F4F9D
:1013D00020782D873E874F87588BBE01675F7F4FF0
:1013E000CB010E94880B6896EAE00C94520DA8E1AC
:1013F000B0E0EDEFF9E00C943A0D69837A838B83CA
:101400009C832D833E834F83588789E0E82EF12CFF
:10141000EC0EFD1ECE010196B7010E945D0C8E01FF
:101420000F5E1F4FCE010596B8010E945D0C8985A5
:10143000823040F08989823028F0C701B8010E94CB
:10144000D50C01C08FEF6896E6E00C94560DA8E12C
:10145000B0E0EDE2FAE00C943A0D69837A838B8375
:101460009C832D833E834F83588789E0E82EF12C9F
:10147000EC0EFD1ECE010196B7010E945D0C8E019F
:101480000F5E1F4FCE010596B8010E945D0C898545
:10149000823040F08989823028F0C701B8010E946B
:1014A000D50C01C08FEF6896E6E00C94560DA8E1CC
:1014B000B0E0EDE5FAE00C943A0D69837A838B8312
:1014C0009C832D833E834F83588789E0E82EF12C3F
:1014D000EC0EFD1ECE010196B7010E945D0C8E013F
:1014E0000F5E1F4FCE010596B8010E945D0C8985E5
:1014F000823040F08989823028F0C701B8010E940B
:10150000D50C01C081E06896E6E00C94560DA8E089
:10151000B0E0EDE8FAE00C94370D9B01AC0183E0FC
:101520008983DA01C9018827B7FD83959927AA27FE
:10153000BB27B82E211531054105510519F482E06C
:1015400089833AC08823A9F0203080E0380780E002
:10155000480780E8580729F460E070E080E09FECDD
:1015600030C0EE24FF248701E21AF30A040B150BA6
:1015700002C079018A018EE1C82ED12CDC82CB8297
:10158000ED82FE820F831887C801B7010E94390BD4
:1015900001971816190684F4082E04C0EE0CFF1CDF
:1015A000001F111F0A94D2F7ED82FE820F83188765
:1015B000C81AD90ADC82CB82BA82CE0101960E9477
:1015C000880B2896E9E00C94530DACE0B0E0EBEE0C
:1015D000FAE00C943E0D69837A838B839C83CE0161
:1015E0000196BE016B5F7F4F0E945D0C8D81823042
:1015F00061F1823050F1843021F48E81882351F1E1
:101600002EC02F81388537FD20C06E812F313105E6
:101610001CF06623F9F023C08EE190E0821B930B4F
:1016200029853A854B855C8504C056954795379545
:1016300027958A95D2F76623B1F05095409530955D
:1016400021953F4F4F4F5F4F0EC020E030E040E00C
:1016500050E009C02FEF3FEF4FEF5FE704C020E0FD
:1016600030E040E050E8B901CA012C96E2E00C9469
:101670005A0DEF92FF920F931F937B018C0180E034
:10168000E81680E0F80681E0080780E0180788F493
:101690008FEFE816F1040105110531F028F088E01C
:1016A00090E0A0E0B0E017C080E090E0A0E0B0E003
:1016B00012C080E0E81680E0F80680E0080781E0CC
:1016C000180728F088E190E0A0E0B0E004C080E1D5
:1016D00090E0A0E0B0E020E230E040E050E0281BE5
:1016E000390B4A0B5B0B04C016950795F794E794EA
:1016F0008A95D2F7F701E85FFE4F8081281B3109F8
:1017000041095109C9011F910F91FF90EF90089570
:10171000DF92EF92FF920F931F93FC01E480F5801C
:1017200006811781D1808081823048F480E090E08A
:10173000A0E1B0E0E82AF92A0A2B1B2BA5C08430CF
:1017400009F49FC0823021F4EE24FF24870105C0F4
:10175000E114F1040105110519F4E0E0F0E096C090
:10176000628173819FEF623879070CF05BC022E8D9
:101770003FEF261B370B2A3131052CF020E030E0FB
:1017800040E050E02AC0B801A701022E04C07695BF
:101790006795579547950A94D2F781E090E0A0E0CD
:1017A000B0E004C0880F991FAA1FBB1F2A95D2F76B
:1017B0000197A109B1098E219F21A023B123009790
:1017C000A105B10521F081E090E0A0E0B0E09A0130
:1017D000AB01282B392B4A2B5B2BDA01C9018F7700
:1017E0009070A070B07080349105A105B10539F4F6
:1017F00027FF09C0205C3F4F4F4F5F4F04C0215C63
:101800003F4F4F4F5F4FE0E0F0E02030A0E03A075D
:10181000A0E04A07A0E45A0710F0E1E0F0E0790107
:101820008A0127C06038710564F5FB01E158FF4F5C
:10183000D801C7018F779070A070B0708034910587
:10184000A105B10539F4E7FE0DC080E490E0A0E009
:10185000B0E004C08FE390E0A0E0B0E0E80EF91E35
:101860000A1F1B1F17FF05C016950795F794E794ED
:10187000319687E016950795F794E7948A95D1F706
:1018800005C0EE24FF248701EFEFF0E06E2F67958F
:1018900066276795902F9F77D794DD24D7948E2F56
:1018A0008695492F462B582F5D29B701CA011F91F4
:1018B0000F91FF90EF90DF900895FC01DB014081D4
:1018C00051812281622F6F7770E0221F2227221F11
:1018D0009381892F880F822B282F30E0991F992719
:1018E000991F11969C93119721153105A9F5411562
:1018F00051056105710511F482E037C082E89FEF60
:1019000013969C938E9312979A01AB0167E0220F76
:10191000331F441F551F6A95D1F783E08C930DC088
:10192000220F331F441F551F12968D919C911397C0
:10193000019713969C938E931297203080E038077E
:1019400080E0480780E4580758F314962D933D93A0
:101950004D935C93179708952F3F310579F4411506
:1019600051056105710519F484E08C93089564FFB5
:1019700003C081E08C9312C01C9210C02F573040DE
:1019800013963C932E93129783E08C9387E0440F39
:10199000551F661F771F8A95D1F7706414964D9373
:1019A0005D936D937C93179708951F93DC01FB0162
:1019B0009C91923008F447C08081823008F443C083
:1019C000943051F411961C91843099F58181682FDF
:1019D00070E0611B71093FC0843021F0923031F416
:1019E0008230B9F18181882389F12DC011961C9133
:1019F00011978230F1F081811817D9F412962D9148
:101A00003C911397828193818217930794F0281752
:101A10003907BCF014968D919D910D90BC91A02D2D
:101A20002481358146815781281739074A075B078A
:101A300018F4112341F00AC082179307A407B507D1
:101A400040F4112319F061E070E005C06FEF7FEF03
:101A500002C060E070E0CB011F9108952F923F9289
:101A60004F925F926F927F928F929F92AF92BF92AE
:101A7000CF92DF92EF92FF920F931F93CF93DF935A
:101A8000CDB7DEB7CA1BDB0B0FB6F894DEBF0FBEB7
:101A9000CDBF09942A88398848885F846E847D8404
:101AA0008C849B84AA84B984C884DF80EE80FD8006
:101AB0000C811B81AA81B981CE0FD11D0FB6F8947C
:0E1AC000DEBF0FBECDBFED010895F894FFCF3D
:101ACE0000000000000000000001020203030303F7
:101ADE0004040404040404040505050505050505B0
:101AEE000505050505050505060606060606060690
:101AFE000606060606060606060606060606060678
:101B0E00060606060606060607070707070707075F
:101B1E000707070707070707070707070707070747
:101B2E000707070707070707070707070707070737
:101B3E000707070707070707070707070707070727
:101B4E00070707070707070708080808080808080F
:101B5E0008080808080808080808080808080808F7
:101B6E0008080808080808080808080808080808E7
:101B7E0008080808080808080808080808080808D7
:101B8E0008080808080808080808080808080808C7
:101B9E0008080808080808080808080808080808B7
:101BAE0008080808080808080808080808080808A7
:101BBE000808080808080808080808080808080897
:081BCE000808080808080808CF
:00000001FF
