:100000000C944C000C946B000C946B000C946B00E3
:100010000C946B000C946B000C946B000C946B00B4
:100020000C946B000C946B000C946B000C946B00A4
:100030000C946B000C946B000C946B000C946B0094
:100040000C946B000C946B000C946B000C946B0084
:100050000C946B000C94AE000C946B000C946B0031
:100060000C946B000C946B000C946B000C946B0064
:100070000C946B000C946B000C946B000C946B0054
:100080000C946B000C946B000C946B000C946B0044
:100090000C946B000C946B0011241FBECFEFD0E2C8
:1000A000DEBFCDBF11E0A0E0B1E0E6ECF1E000E0A2
:1000B0000BBF02C007900D92A030B107D9F711E035
:1000C000A0E0B1E001C01D92A230B107E1F70E94AB
:1000D00084000C94E1000C940000E1E6F0E080E87C
:1000E00080831082279A2F986C98749A6D98759ACD
:1000F00082E084BD83E085BD8CE787BDEEE6F0E05D
:1001000080818260808308950E946D0078942FE73B
:1001100040E157E2322FCA010197F1F7F89490912C
:10012000010180910101817080930101789495957E
:10013000892F992787FD9095820F911D8F3F9105FB
:1001400019F014F02FEF06C08230910514F422E06C
:1001500001C0282F3150F9F61F9ADCCF1F920F9261
:100160000FB60F9211242F938F939F938CB184FD20
:1001700002C020E001C023E085FF02C081E0282703
:1001800090910001921B90FF09C020930001809183
:10019000010181509270890F809301019F918F918D
:1001A0002F910F900FBE0F901F901895F89480918B
:1001B00001019091010191709093010178948595CE
:0601C0000895F894FFCF42
:00000001FF
