:100000000C943A010C9459010C9459010C94590127
:100010000C9459010C9459010C9459010C945901F8
:100020000C9459010C9459010C9459010C945901E8
:100030000C9459010C9459010C9459010C945901D8
:100040000C9459010C9459010C9459010C945901C8
:100050000C9459010C94D1010C9459010C94590140
:100060000C9459010C9459010C9459010C945901A8
:100070000C9459010C9459010C9459010C94590198
:100080000C9459010C9459010C9459010C94590188
:100090000C9459010C945901000000000000005F0D
:1000A00000000003000300143E143E14242A7F2A9B
:1000B000124333086661364955225000050300009B
:1000C000001C2241000041221C0014083E081408B4
:1000D000083E0808005030000008080808080060C2
:1000E00060000020100804023E5149453E00040211
:1000F0007F00426151494622414949361814127F16
:100100001027454545393E494949320101710907E2
:100110003649494936264949493E003636000000ED
:10012000563600000814224100141414141400411F
:1001300022140802015109063E4159555E7E090903
:10014000097E7F494949363E414141227F41414133
:100150003E7F494949417F090909013E4141493AE8
:100160007F0808087F00417F4100304040403F7FCA
:10017000081422417F404040407F020C027F7F02F2
:1001800004087F3E4141413E7F090909061E2121A5
:10019000215E7F09090976264949493201017F011B
:1001A000013F4040403F1F2040201F7F2010207F04
:1001B00041221C224107087008076151494543004C
:1001C0007F41000002040810200000417F0004026B
:1001D0000102044040404040000102040020545409
:1001E00054787F4444443838444444443844444474
:1001F0007F385454541804047E0505085454543C64
:100200007F0804047800447D40002040443D007F86
:100210001028440000417F40007C047804787C086A
:1002200004047838444444387C1414140808141422
:10023000147C007C080404485454542004043F44B3
:10024000443C4040207C1C2040201C3C4030403C32
:1002500044281028440C5050503C4464544C4400F2
:100260000836414100007F0000414136080002018C
:100270000204020011241FBECFEFD0E2DEBFCDBFCB
:1002800012E0A0E0B1E0EAECF8E100E00BBF02C050
:1002900007900D92A034B107D9F712E0A0E4B2E0C4
:1002A00001C01D92A635B107E1F70E94BF020C9470
:1002B000630C0C9400002CB1332727FD30952227C6
:1002C000330F221F3327C901089526B130E095E08E
:1002D000369527959A95E1F72095309521703070E5
:1002E000C901089526B130E043E0369527954A9537
:1002F000E1F72095309521703070C9010895659B14
:1003000014C0659B05C0649903C021E030E00BC0B8
:10031000659B05C0649B03C022E030E004C0659B80
:1003200009C024E030E0C90108956499EACF20E0D3
:1003300030E0F9CF649BF5CF23E030E0F4CF2CB16F
:1003400030E055E0369527955A95E1F721703070E9
:10035000C90108952CB130E064E0369527956A957F
:10036000E1F721703070C901089582E091E065E005
:1003700070E045E050E00E9490068091400290912C
:100380004102BC01660F771F680F791F660F771F48
:100390006B5F7F4F80E091E040E150E00E9490066B
:1003A00008951F920F920FB60F920BB60F92112461
:1003B0000F931F932F933F934F935F936F937F936D
:1003C0008F939F93AF93BF93CF93DF93EF93FF935D
:1003D00033991BC0ABC001969093410280934002B9
:1003E000FC01EE5FFE4F8081803214F480E2808356
:1003F0000E94D2040E94B50180ED97E028EC30E025
:10040000F9013197F1F70197D9F735991BC097C0DA
:1004100001979093410280934002FC01EE5FFE4FF2
:100420008081803214F480E280830E94D2040E9492
:10043000B50180ED97E028EC30E0F9013197F1F754
:100440000197D9F70E947F01C0914602D0914702DF
:100450008C179D0709F47CC00E947F010197C81783
:10046000D90751F000914602109147020E947F0186
:1004700003960817190769F50E947F0190934702B8
:100480008093460280914202909143020297B9F410
:10049000E0914002F0914102EE5FFE4F8081813297
:1004A00014F08150808381E090E090933601809336
:1004B000350110924302109242020E94B5018091D0
:1004C000420290914302019690934302809342022C
:1004D0003FC00E947F019093470280934602809123
:1004E0004402909145020297B9F4E0914002F091E4
:1004F0004102EE5FFE4F80818E3714F48F5F808360
:1005000081E090E09093360180933501109245028E
:10051000109244020E94B5018091440290914502DC
:100520000196909345028093440212C0809140024C
:1005300090914102833391050CF44DCF5DCF8091B2
:10054000400290914102181619060CF461CF71CF48
:10055000FF91EF91DF91CF91BF91AF919F918F91DB
:100560007F916F915F914F913F912F911F910F91CB
:100570000F900BBE0F900FBE0F901F90189580E844
:1005800080936100109261003D98459A3B98439A90
:1005900087B1837C87B988B18C6388B96F98779A63
:1005A0006D98759A6C98749A80916A0085688093AA
:1005B0006A0082E084BD83E085BD8CE787BD8091C1
:1005C0006E00826080936E000E9411058DE30E9490
:1005D000880381E090E00E940B030E947F019093CA
:1005E00047028093460278948091350190913601BC
:1005F000892B39F00E94B501109236011092350115
:10060000F3CFFFCF93E89093B00091E09093B100C7
:100610008093B30008959C0190934D0280934C0207
:1006200086E390E0809300402115310589F480EF46
:1006300090E0909349028093480280E491E0909387
:100640004B0280934A0288E490E0809300413BC0D3
:100650002130310589F480E491E090934902809340
:10066000480280EF90E090934B0280934A0288EE1C
:1006700090E08093004127C02230310589F480EF5B
:1006800090E0909349028093480280E491E0909337
:100690004B0280934A0288E890E08093004113C0A7
:1006A0002330310581F480E491E0909349028093F6
:1006B000480280EF90E090934B0280934A0288E2D8
:1006C00090E0809300418AE290E08093004020E037
:1006D00030E0309300412093004180914802909196
:1006E0004902019790930041809300418BE290E092
:1006F00080930040309300412093004180914A0252
:1007000090914B020197909300418093004108958E
:100710001F93682F873718F010E066E711C0883004
:1007200010F468E00CC08D3310F010E009C08F3178
:1007300010F011E005C0803110F012E001C013E0AC
:1007400081EB90E0809300401093004170E0882797
:1007500077FD8095982F0E9485099B01AC0160E090
:1007600070E080EF94E40E94A9080E94D30670E034
:1007700002C0759567951A95E2F7609300411F9145
:1007800008950F931F93DF93CF93CDB7DEB72897CC
:100790000FB6F894DEBF0FBECDBF29833A834B83DB
:1007A0005C836D837E838F83988769817A812B81B7
:1007B0003C81ED81FE814F8158858AE290E08093F3
:1007C00000407093004160930041309300412093BA
:1007D00000418BE290E080930040F0930041E09371
:1007E000004150930041409300418CE290E080939F
:1007F00000402F5F3F4F261B370B4F5F5F4F4E1B55
:100800005F0B24173507C8F4842F877090E0829F10
:10081000B001839F700D929F700D1124F3E05695E7
:100820004795FA95E1F7842F90E0829FF001839F2E
:10083000F00D929FF00D112418C0822F877090E068
:10084000849FB001859F700D949F700D1124E3E08B
:1008500036952795EA95E1F7822F90E0849FF00185
:10086000859FF00D949FF00D1124862F877005C091
:10087000109300410093004181508823C9F7CB01B8
:1008800023E0969587952A95E1F78E0F9F1F21C04B
:1008900010930041009300411093004100930041E8
:1008A00010930041009300411093004100930041D8
:1008B00010930041009300411093004100930041C8
:1008C00010930041009300411093004100930041B8
:1008D00001970097E9F628960FB6F894DEBF0FBE91
:1008E000CDBFCF91DF911F910F910895EF92FF92AD
:1008F0000F931F93DF93CF93CDB7DEB728970FB633
:10090000F894DEBF0FBECDBF29833A834B835C834F
:100910006D837E838F83988729813A81AB81BC81E7
:10092000ED80FE806F8178858AE290E080930040C0
:100930003093004120930041B0930041A0930041C7
:100940008BE290E080930040F0920041E092004101
:1009500070930041609300418CE290E080930040EE
:100960000FC0F801819191918F0190930041809384
:1009700000414F5F5F4F6417750798F72F5F3F4F38
:10098000A217B30710F0A701F6CF28960FB6F89478
:10099000DEBF0FBECDBFCF91DF911F910F91FF90B2
:1009A000EF9008950F931F93DF93CF93CDB7DEB7EA
:1009B00028970FB6F894DEBF0FBECDBF10924F023E
:1009C00010924E0210925102109250022091480251
:1009D000309149022150304080914A0290914B025F
:1009E00001971A821982422F3C832B831E821D821B
:1009F00098878F83009154021091550229813A8182
:100A00005C816D817E8198850E94C10328960FB616
:100A1000F894DEBF0FBECDBFCF91DF911F910F9134
:100A2000089586E08093750080E8809374003F9A73
:100A3000249A80ED97E00197F1F7479880E49CE9CC
:100A40000197F1F7479A80EB94E028EC30E0F90148
:100A50003197F1F70197D9F788E290E08093004051
:100A600081E190E08093004088E592E028EC30E05E
:100A7000F9013197F1F70197D9F741E050E08BEC9C
:100A800090E0809300404093004180EC90E08093A0
:100A9000004088E096E2909300418093004120E17D
:100AA00030E081EC90E0809300402093004185ECA1
:100AB00090E0809300408EE395E390930041809313
:100AC000004125EB30E087EC90E0809300402093DC
:100AD000004186EF90E0809300404093004180E029
:100AE00090E0909300418093004125E530E08AE357
:100AF00090E0809300402093004181E090E00E94CC
:100B00000B030E94D20410924F0210924E021092D8
:100B100051021092500210925502109254028FEF1F
:100B20009FEF909353028093520289E290E080936A
:100B3000004084EF91E028EC30E0F9013197F1F7C3
:100B40000197D9F780E090E025E330E02093004062
:100B50008093004180916A00806280936A002C9AA1
:100B60000895CF92DF92EF92FF920F931F93CF934E
:100B7000DF93982F40914E0250914F028A010C5FF3
:100B80001F4F20915002309151028A30A9F41092E7
:100B90004F0210924E02285F3F4F30935102209334
:100BA000500280914A0290914B022817390708F4AD
:100BB00089C00E94D20486C080528F3508F082C05E
:100BC000E901279685E09802F0011124E850F040F1
:100BD0008BE290E0809300403093004120930041ED
:100BE000D0930041C0930041BAE2CB2ED12CACE2AD
:100BF000EA2EF12C29C0C09200405093004140934E
:100C000000415093004140930041E0920040B49174
:100C1000B901A1E013C08A2F8B2329F080915202E1
:100C20009091530204C08091540290915502909388
:100C30000041809300416F5F7F4FAA0FC617D7070F
:100C400050F731964F5F5F4F04171507A0F68AE201
:100C500090E08093004050930041409300415093B6
:100C60000041409300418CE290E0809300400AC034
:100C700080915402909155029093004180930041DD
:100C80002F5F3F4FC217D30798F780914E02909184
:100C90004F02069690934F0280934E022091480295
:100CA000309149028217930768F010924F02109218
:100CB0004E028091500290915102089690935102F9
:100CC00080935002DF91CF911F910F91FF90EF9091
:100CD000DF90CF9008951F93CF93DF93EC0110E046
:100CE00003C00E94B1051F5FFE01E10FF11D80816D
:100CF0008823B9F7DF91CF911F91089590934F0208
:100D000080934E0270935102609350020895909325
:100D100053028093520270935502609354020895D7
:100D20001F93CF93DF93EC0170934F0260934E02B9
:100D3000509351024093500210E003C00E94B1054D
:100D40001F5FFE01E10FF11D80818823B9F7DF915C
:100D5000CF911F910895EF92FF920F931F93CF931E
:100D6000DF93C0E0D0E010E8E12EF12C082F10E076
:100D7000C7010C2E02C0959587950A94E2F780234F
:100D80009123892B11F081E301C08EE20E94B1050D
:100D90002196C830D10561F7DF91CF911F910F9156
:100DA000FF90EF900895EF92FF920F931F937B01B6
:100DB0008C0120E030E040E05FE40E945509882388
:100DC0008CF0C801B70120E030E040E05FE40E9411
:100DD0004B080E94E3099B01AC0120503040404089
:100DE000504806C0C801B7010E94E3099B01AC014D
:100DF000B901CA011F910F91FF90EF900895A0E0F3
:100E0000B0E0E5E0F7E00C942C0CDC012B01FA01DA
:100E10009C91923008F439C1EB018881823008F44A
:100E200033C1943069F4843009F02FC111969C913C
:100E300011978981981709F428C1A7E3B1E025C16A
:100E4000843009F421C18230A9F4923009F01DC127
:100E50009A01AD0188E0EA010990AE01E901099229
:100E60009E018150C1F7E201898111969C918923ED
:100E7000818308C1923009F407C112962D903C90ED
:100E80001397EB018A819B811496AD90BD90CD9014
:100E9000DC901797EC80FD800E811F819101281B4B
:100EA000390BB90137FF04C066277727621B730B24
:100EB000603271050CF061C0121613066CF5370133
:100EC0004801062E04C096948794779467940A94F8
:100ED000D2F721E030E040E050E004C0220F331FA1
:100EE000441F551F6A95D2F7215030404040504072
:100EF0002E213F2140235123211531054105510564
:100F000021F021E030E040E050E079018A01E6285C
:100F1000F728082919293CC0232BD1F1260E371EAA
:100F200035014601062E04C0969487947794679401
:100F30000A94D2F721E030E040E050E004C0220FF4
:100F4000331F441F551F6A95D2F72150304040404F
:100F500050402A213B214C215D21211531054105BD
:100F6000510521F021E030E040E050E059016A01F4
:100F7000A628B728C828D9280BC0821593052CF0BD
:100F80001C01AA24BB24650103C0EE24FF248701B1
:100F900011969C91D20111968C91981709F445C035
:100FA000992339F0A80197012A193B094C095D09D9
:100FB00006C0A60195012E193F09400B510B57FDA4
:100FC00008C011823382228224833583468357836B
:100FD0001DC081E081833382228288279927DC012A
:100FE000821B930BA40BB50B84839583A683B783D5
:100FF0000DC0220F331F441F551F248335834683A2
:1010000057838281938101979383828324813581E1
:1010100046815781DA01C9010197A109B1098F5FA2
:101020009F4FAF4FBF4328F30BC09183338222827F
:10103000EA0CFB1C0C1D1D1DE482F5820683178340
:1010400083E08083248135814681578157FF1AC010
:10105000C901AA2797FDA095BA2F81709070A07042
:10106000B0705695479537952795822B932BA42BD7
:10107000B52B84839583A683B78382819381019660
:1010800093838283DF0101C0D201CD01CDB7DEB7EA
:10109000E2E10C94480CA0E2B0E0E1E5F8E00C9449
:1010A000380C69837A838B839C832D833E834F83A3
:1010B0005887E9E0EE2EF12CEC0EFD1ECE010196D4
:1010C000B7010E945B0B8E010F5E1F4FCE0105968C
:1010D000B8010E945B0B8A8991E089278A8BC7013E
:1010E000B801AE01475E5F4F0E94FF060E94860A6C
:1010F000A096E6E00C94540CA0E2B0E0E2E8F8E040
:101100000C94380C69837A838B839C832D833E8374
:101110004F835887F9E0EF2EF12CEC0EFD1ECE0127
:101120000196B7010E945B0B8E010F5E1F4FCE012F
:101130000596B8010E945B0BC701B801AE01475E7E
:101140005F4F0E94FF060E94860AA096E6E00C947C
:10115000540CA8E1B0E0EFEAF8E00C94340C698399
:101160007A838B839C832D833E834F835887B9E09A
:10117000EB2EF12CEC0EFD1ECE010196B7010E9464
:101180005B0B8E010F5E1F4FCE010596B8010E94CA
:101190005B0B2985223008F47EC03989323010F487
:1011A000B8017CC08A859A8989278A87243011F002
:1011B000223031F4231709F06EC067E371E06EC08E
:1011C000343039F41D861E861F86188A1C861B86BD
:1011D00004C0323021F484E08987B7015FC02B85D9
:1011E0003C858B899C89281B390B3C872B87ED8498
:1011F000FE840F851889AD88BE88CF88D88CEA1404
:10120000FB040C051D0540F4EE0CFF1C001F111F14
:10121000215030403C872B8720E030E040E050E018
:1012200080E090E0A0E0B0E460E070E0EA14FB044D
:101230000C051D0540F0282B392B4A2B5B2BEA1897
:10124000FB080C091D09B695A79597958795EE0C97
:10125000FF1C001F111F6F5F7F4F6F31710531F74A
:10126000DA01C9018F779070A070B0708034910559
:10127000A105B10561F427FD0AC0E114F1040105DF
:10128000110529F0205C3F4F4F4F5F4F20782D878D
:101290003E874F87588BBE01675F7F4FCB010E940F
:1012A000860A6896EAE00C94500CA8E1B0E0EBE501
:1012B000F9E00C94380C69837A838B839C832D83AB
:1012C0003E834F83588789E0E82EF12CEC0EFD1EFB
:1012D000CE010196B7010E945B0B8E010F5E1F4F7E
:1012E000CE010596B8010E945B0B8985823040F0E3
:1012F0008989823028F0C701B8010E94D30B01C050
:101300008FEF6896E6E00C94540CA8E0B0E0EBE8B0
:10131000F9E00C94350C9B01AC0183E08983DA0180
:10132000C9018827B7FD83959927AA27BB27B82E1F
:10133000211531054105510519F482E089833AC030
:101340008823A9F0203080E0380780E0480780E853
:10135000580729F460E070E080E09FEC30C0EE2494
:10136000FF248701E21AF30A040B150B02C079016E
:101370008A018EE1C82ED12CDC82CB82ED82FE82E6
:101380000F831887C801B7010E94370A0197181602
:10139000190684F4082E04C0EE0CFF1C001F111F58
:1013A0000A94D2F7ED82FE820F831887C81AD90AF1
:1013B000DC82CB82BA82CE0101960E94860A2896F0
:1013C000E9E00C94510CACE0B0E0E9EEF9E00C94EB
:1013D0003C0C69837A838B839C83CE010196BE018A
:1013E0006B5F7F4F0E945B0B8D81823061F1823099
:1013F00050F1843021F48E81882351F12EC02F8149
:10140000388537FD20C06E812F3131051CF06623F1
:10141000F9F023C08EE190E0821B930B29853A8579
:101420004B855C8504C056954795379527958A95D9
:10143000D2F76623B1F050954095309521953F4FF6
:101440004F4F5F4F0EC020E030E040E050E009C059
:101450002FEF3FEF4FEF5FE704C020E030E040E0C8
:1014600050E8B901CA012C96E2E00C94580CEF92B6
:10147000FF920F931F937B018C0180E0E81680E0C0
:10148000F80681E0080780E0180788F48FEFE81677
:10149000F1040105110531F028F088E090E0A0E0AA
:1014A000B0E017C080E090E0A0E0B0E012C080E0C3
:1014B000E81680E0F80680E0080781E0180728F0C9
:1014C00088E190E0A0E0B0E004C080E190E0A0E01E
:1014D000B0E020E230E040E050E0281B390B4A0B3E
:1014E0005B0B04C016950795F794E7948A95D2F79D
:1014F000F701E15CFE4F8081281B31094109510948
:10150000C9011F910F91FF90EF900895DF92EF9224
:10151000FF920F931F93FC01E480F58006811781F1
:10152000D1808081823048F480E090E0A0E1B0E09A
:10153000E82AF92A0A2B1B2BA5C0843009F49FC086
:10154000823021F4EE24FF24870105C0E114F10468
:101550000105110519F4E0E0F0E096C062817381A5
:101560009FEF623879070CF05BC022E83FEF261B43
:10157000370B2A3131052CF020E030E040E050E01C
:101580002AC0B801A701022E04C076956795579529
:1015900047950A94D2F781E090E0A0E0B0E004C063
:1015A000880F991FAA1FBB1F2A95D2F70197A1097F
:1015B000B1098E219F21A023B1230097A105B10578
:1015C00021F081E090E0A0E0B0E09A01AB01282B8F
:1015D000392B4A2B5B2BDA01C9018F779070A070F1
:1015E000B07080349105A105B10539F427FF09C019
:1015F000205C3F4F4F4F5F4F04C0215C3F4F4F4F28
:101600005F4FE0E0F0E02030A0E03A07A0E04A07BA
:10161000A0E45A0710F0E1E0F0E079018A0127C068
:101620006038710564F5FB01E158FF4FD801C7012F
:101630008F779070A070B07080349105A105B105CE
:1016400039F4E7FE0DC080E490E0A0E0B0E004C013
:101650008FE390E0A0E0B0E0E80EF91E0A1F1B1F28
:1016600017FF05C016950795F794E794319687E024
:1016700016950795F794E7948A95D1F705C0EE245F
:10168000FF248701EFEFF0E06E2F679566276795DF
:10169000902F9F77D794DD24D7948E2F8695492F4E
:1016A000462B582F5D29B701CA011F910F91FF905A
:1016B000EF90DF900895FC01DB0140815181228190
:1016C000622F6F7770E0221F2227221F9381892FBC
:1016D000880F822B282F30E0991F9927991F119688
:1016E0009C93119721153105A9F541155105610507
:1016F000710511F482E037C082E89FEF13969C9346
:101700008E9312979A01AB0167E0220F331F441F9B
:10171000551F6A95D1F783E08C930DC0220F331FBC
:10172000441F551F12968D919C9113970197139604
:101730009C938E931297203080E0380780E0480712
:1017400080E4580758F314962D933D934D935C9382
:10175000179708952F3F310579F44115510561051B
:10176000710519F484E08C93089564FF03C081E04F
:101770008C9312C01C9210C02F57304013963C938C
:101780002E93129783E08C9387E0440F551F661FBA
:10179000771F8A95D1F7706414964D935D936D937E
:1017A0007C93179708951F93DC01FB019C91923065
:1017B00008F447C08081823008F443C0943051F46B
:1017C00011961C91843099F58181682F70E0611B1E
:1017D00071093FC0843021F0923031F48230B9F188
:1017E0008181882389F12DC011961C911197823037
:1017F000F1F081811817D9F412962D913C9113972D
:10180000828193818217930794F028173907BCF0DF
:1018100014968D919D910D90BC91A02D24813581C0
:1018200046815781281739074A075B0718F41123A7
:1018300041F00AC082179307A407B50740F41123AB
:1018400019F061E070E005C06FEF7FEF02C060E06B
:1018500070E0CB011F9108952F923F924F925F92BB
:101860006F927F928F929F92AF92BF92CF92DF92B0
:10187000EF92FF920F931F93CF93DF93CDB7DEB715
:10188000CA1BDB0B0FB6F894DEBF0FBECDBF0994A9
:101890002A88398848885F846E847D848C849B8400
:1018A000AA84B984C884DF80EE80FD800C811B810E
:1018B000AA81B981CE0FD11D0FB6F894DEBF0FBE3D
:0A18C000CDBFED010895F894FFCFAD
:1018CA005E0041000000000000000000000000006F
:1018DA0000000000000000000000000000000000FE
:1018EA0000000000000000000000000000000000EE
:1018FA0000000000000100000000000000000000DD
:10190A000102020303030304040404040404040597
:10191A00050505050505050505050505050505066C
:10192A00060606060606060606060606060606064D
:10193A00060606060606060606060606060606073C
:10194A00070707070707070707070707070707071D
:10195A00070707070707070707070707070707070D
:10196A0007070707070707070707070707070707FD
:10197A0007070707070707070707070707070708EC
:10198A0008080808080808080808080808080808CD
:10199A0008080808080808080808080808080808BD
:1019AA0008080808080808080808080808080808AD
:1019BA00080808080808080808080808080808089D
:1019CA00080808080808080808080808080808088D
:1019DA00080808080808080808080808080808087D
:1019EA00080808080808080808080808080808086D
:1019FA000808080808080808080808080808080065
:00000001FF
