:100000000C9463010C9482010C9482010C94820183
:100010000C9482010C9482010C9482010C94820154
:100020000C9482010C9482010C9482010C94820144
:100030000C9482010C9482010C9482010C94820134
:100040000C9482010C9482010C9482010C94820124
:100050000C9482010C94A0050C9482010C948201F2
:100060000C9482010C9482010C9482010C94820104
:100070000C9482010C9482010C9482010C948201F4
:100080000C9482010C9482010C9482010C948201E4
:100090000C9482010C94820105A84CCDB2D44EB9C7
:1000A0003836A9020C50B9918688083CA6AAAA2A1B
:1000B000BE000000803F000000000000005F000064
:1000C0000003000300143E143E14242A7F2A124326
:1000D0003308666136495522500005030000001CB4
:1000E0002241000041221C0014083E081408083E6A
:1000F0000808005030000008080808080060600088
:100100000020100804023E5149453E0004027F00D1
:10011000426151494622414949361814127F10273D
:10012000454545393E49494932010171090736497A
:10013000494936264949493E0036360000005636C0
:100140000000081422410014141414140041221455
:100150000802015109063E4159555E7E0909097E92
:100160007F494949363E414141227F4141413E7FDD
:10017000494949417F090909013E4141493A7F08FE
:1001800008087F00417F4100304040403F7F081415
:1001900022417F404040407F020C027F7F020408E2
:1001A0007F3E4141413E7F090909061E2121215E12
:1001B0007F09090976264949493201017F01013F3A
:1001C0004040403F1F2040201F7F2010207F4122C1
:1001D0001C224107087008076151494543007F41CF
:1001E000000002040810200000417F000402010208
:1001F0000440404040400001020400205454547820
:100200007F444444383844444444384444447F3868
:100210005454541804047E0505085454543C7F0873
:1002200004047800447D40002040443D007F1028B5
:10023000440000417F40007C047804787C0804047A
:100240007838444444387C14141408081414147C7A
:10025000007C080404485454542004043F44443CA3
:100260004040207C1C2040201C3C4030403C442826
:100270001028440C5050503C4464544C4400083600
:10028000414100007F0000414136080002010204A4
:100290000281FF7E183C7E7EFFFFE7C3C3C3E77E7B
:1002A0007E3C003C7EFFFFFF54D692B2A6A4B6125D
:1002B000007EC399BDBD99C37E003048083C7EFFD7
:1002C000FFFF7E3C000011241FBECFEFD0E2DEBF57
:1002D000CDBF12E0A0E0B1E0E0E0FFE100E00BBF45
:1002E00002C007900D92AC30B107D9F712E0ACE034
:1002F000B2E001C01D92AC32B107E1F70E94920654
:100300000C947E0F0C940000F8948091150290914B
:10031000150291709093150278948595089593E84D
:100320009093B00091E09093B1008093B300089552
:100330009C0190931B0280931A0286E390E08093C5
:1003400000402115310589F480EF90E09093170269
:100350008093160280E491E0909319028093180232
:1003600088E490E0809300413BC02130310589F45E
:1003700080E491E0909317028093160280EF90E062
:10038000909319028093180288EE90E080930041C8
:1003900027C02230310589F480EF90E09093170256
:1003A0008093160280E491E09093190280931802E2
:1003B00088E890E08093004113C02330310581F438
:1003C00080E491E0909317028093160280EF90E012
:1003D000909319028093180288E290E08093004184
:1003E0008AE290E08093004020E030E030930041CA
:1003F00020930041809116029091170201979093EB
:100400000041809300418BE290E080930040309364
:1004100000412093004180911802909119020197A8
:10042000909300418093004108951F93682F873770
:1004300018F010E066E711C0883010F468E00CC0D6
:100440008D3310F010E009C08F3110F011E005C0BD
:10045000803110F012E001C013E081EB90E0809356
:1004600000401093004170E0882777FD8095982F19
:100470000E94CD0A9B01AC0160E070E080EF94E443
:100480000E94F1090E94210770E002C075956795EE
:100490001A95E2F7609300411F9108950F931F93FF
:1004A000DF93CF93CDB7DEB728970FB6F894DEBFB2
:1004B0000FBECDBF29833A834B835C836D837E83DC
:1004C0008F83988769817A812B813C81ED81FE81C0
:1004D0004F8158858AE290E08093004070930041FC
:1004E0006093004130930041209300418BE290E003
:1004F00080930040F0930041E0930041509300410D
:10050000409300418CE290E0809300402F5F3F4F8A
:10051000261B370B4F5F5F4F4E1B5F0B24173507B2
:10052000C8F4842F877090E0829FB001839F700D84
:10053000929F700D1124F3E056954795FA95E1F7D7
:10054000842F90E0829FF001839FF00D929FF00D29
:10055000112418C0822F877090E0849FB001859F7E
:10056000700D949F700D1124E3E036952795EA9560
:10057000E1F7822F90E0849FF001859FF00D949F1A
:10058000F00D1124862F877005C010930041009351
:10059000004181508823C9F7CB0123E096958795C8
:1005A0002A95E1F78E0F9F1F21C010930041009301
:1005B00000411093004100930041109300410093CB
:1005C00000411093004100930041109300410093BB
:1005D00000411093004100930041109300410093AB
:1005E0000041109300410093004101970097E9F604
:1005F00028960FB6F894DEBF0FBECDBFCF91DF9126
:100600001F910F910895EF92FF920F931F93DF9325
:10061000CF93CDB7DEB728970FB6F894DEBF0FBEE5
:10062000CDBF29833A834B835C836D837E838F8325
:10063000988729813A81AB81BC81ED80FE806F81F2
:1006400078858AE290E080930040309300412093C7
:100650000041B0930041A09300418BE290E0809371
:100660000040F0920041E09200417093004160939D
:1006700000418CE290E0809300400FC0F80181912E
:1006800091918F0190930041809300414F5F5F4FA4
:100690006417750798F72F5F3F4FA217B30710F045
:1006A000A701F6CF28960FB6F894DEBF0FBECDBFD8
:1006B000CF91DF911F910F91FF90EF9008950F93CD
:1006C0001F93DF93CF93CDB7DEB728970FB6F8947B
:1006D000DEBF0FBECDBF10921D0210921C02109201
:1006E0001F0210921E022091160230911702215013
:1006F0003040809118029091190201971A82198254
:10070000422F3C832B831E821D8298878F8300910A
:1007100022021091230229813A815C816D817E81C0
:1007200098850E944E0228960FB6F894DEBF0FBE41
:10073000CDBFCF91DF911F910F91089586E08093F7
:10074000750080E8809374003F9A249A80ED97E0CA
:100750000197F1F7479880E49CE90197F1F7479AF0
:1007600080EB94E028EC30E0F9013197F1F7019744
:10077000D9F788E290E08093004081E190E0809397
:10078000004088E592E028EC30E0F9013197F1F77C
:100790000197D9F741E050E08BEC90E08093004066
:1007A0004093004180EC90E08093004088E096E226
:1007B000909300418093004120E130E081EC90E093
:1007C000809300402093004185EC90E080930040AE
:1007D0008EE395E3909300418093004125EB30E058
:1007E00087EC90E0809300402093004186EF90E0FA
:1007F000809300404093004180E090E0909300415E
:100800008093004125E530E08AE390E0809300404A
:100810002093004181E090E00E9498010E945F03D4
:1008200010921D0210921C0210921F0210921E02C2
:1008300010922302109222028FEF9FEF90932102D9
:100840008093200289E290E08093004084EF91E061
:1008500028EC30E0F9013197F1F70197D9F780E002
:1008600090E025E330E020930040809300418091A8
:100870006A00806280936A002C9A0895CF92DF927A
:10088000EF92FF920F931F93CF93DF93982F409196
:100890001C0250911D028A010C5F1F4F20911E0205
:1008A00030911F028A30A9F410921D0210921C028E
:1008B000285F3F4F30931F0220931E028091180241
:1008C000909119022817390708F489C00E945F0324
:1008D00086C080528F3508F082C0E901279685E0F6
:1008E0009802F0011124EA5EFF4F8BE290E08093C2
:1008F00000403093004120930041D0930041C093C9
:100900000041BAE2CB2ED12CACE2EA2EF12C29C068
:10091000C0920040509300414093004150930041E9
:1009200040930041E0920040B491B901A1E013C0AE
:100930008A2F8B2329F0809120029091210204C0FC
:100940008091220290912302909300418093004174
:100950006F5F7F4FAA0FC617D70750F731964F5FCB
:100960005F4F04171507A0F68AE290E080930040DD
:100970005093004140930041509300414093004107
:100980008CE290E0809300400AC080912202909116
:10099000230290930041809300412F5F3F4FC21785
:1009A000D30798F780911C0290911D0206969093B0
:1009B0001D0280931C0220911602309117028217AB
:1009C000930768F010921D0210921C0280911E0283
:1009D00090911F02089690931F0280931E02DF9150
:1009E000CF911F910F91FF90EF90DF90CF900895DE
:1009F0001F93CF93DF93EC0110E003C00E943E04ED
:100A00001F5FFE01E10FF11D80818823B9F7DF919F
:100A1000CF911F91089590931D0280931C027093B3
:100A20001F0260931E02089590932102809320027A
:100A3000709323026093220208951F93CF93DF9354
:100A4000EC0170931D0260931C0250931F024093AF
:100A50001E0210E003C00E943E041F5FFE01E10F72
:100A6000F11D80818823B9F7DF91CF911F910895FF
:100A7000EF92FF920F931F93CF93DF93C0E0D0E0EC
:100A800010E8E12EF12C082F10E0C7010C2E02C057
:100A9000959587950A94E2F780239123892B11F08D
:100AA00081E301C08EE20E943E042196C830D10548
:100AB00061F7DF91CF911F910F91FF90EF90089513
:100AC0000F931F938901DC018AE290E0809300403C
:100AD0007093004160930041685F7F4F70930041C5
:100AE000609300418BE290E080930040509300417E
:100AF000409300414F5E5F4F50930041409300414F
:100B00008CE290E080930040FD0111966491662391
:100B1000A1F050E041E0842F862311F0980104C039
:100B20002091220230912302309300412093004112
:100B30005F5F593049F3440FEECF1F910F91089535
:100B40001F920F920FB60F920BB60F921124EF92D5
:100B5000FF920F931F932F933F934F935F936F9346
:100B60007F938F939F93AF93BF93EF93FF938CB13A
:100B700084FD02C020E001C023E085FF02C081E0C7
:100B8000282790911402921B90FF09C02093140211
:100B90008091150281509270890F80931502809187
:100BA0000E0290910F020B970CF463C010920F028B
:100BB00010920E0260911502772767FD7095872FBE
:100BC000972F0E94CD0A20E030E040E251E40E94DD
:100BD000F1090E94290E20E030E040E450E40E9438
:100BE000F7080E94090E7B018C016091010170E001
:100BF000882777FD8095982F0E94CD0AA80197013C
:100C00000E94CA080E9421076093010160911502A9
:100C1000772767FD7095872F972F0E94CD0A20E0D8
:100C200030E040E251E40E94F1090E94AB0D20E067
:100C300030E040E450E40E94F7080E94090E7B0176
:100C40008C016091020170E0882777FD8095982FD4
:100C50000E94CD0AA80197010E94CA080E9421079C
:100C60006093020181E090E090930D0280930C026A
:100C700009C080910E0290910F02019690930F028D
:100C800080930E02FF91EF91BF91AF919F918F9151
:100C90007F916F915F914F913F912F911F910F9194
:100CA000FF90EF900F900BBE0F900FBE0F901F9014
:100CB0001895279A2F98E1E6F0E080E8808381E09C
:100CC00080836C98749A6D98759A82E084BD83E0F5
:100CD00085BD8CE787BDEEE6F0E080818260808391
:100CE0000E949E038DE30E94150281E090E00E9425
:100CF000980180910101809324021092250290E0D6
:100D00000896909327028093260280910201809397
:100D100028021092290290E0089690932B0280936B
:100D20002A020895CF92DF92EF92FF920F931F93C2
:100D3000CF93DF930E945906609101014091020117
:100D400081E992E070E050E020EE3FEF0E94600504
:100D500083EA92E068E270E048E750E02FE130E09B
:100D60000E94600583EA92E068E770E040EA50E0A4
:100D700020E034E00E9460058AEB92E068EC70E0CD
:100D800048EC50E020E130E80E94600581EB92E001
:100D900064E170E044E150E020E038EF0E9460053B
:100DA0007894C4E2D2E094E0C92ED12CCC0EDD1EA2
:100DB00080E2E82E8EE4F82E80910C0290910D02D4
:100DC000892BD9F1209124023091250240912602ED
:100DD00050912702609128027091290280912A0285
:100DE00090912B0200E010E00E944E026091010100
:100DF00060932402198270E0685F7F4F709327022E
:100E0000609326026850704040910201409328028E
:100E1000F601118250E04E5E5F4F50932B024093DB
:100E20002A024251504081E992E020EE3FEF0E94B9
:100E3000600510920D0210920C02C7010197F1F7A4
:100E4000BBCFEF92FF920F931F937B018C0120E0A9
:100E500030E040E05FE40E949D0A88238CF0C801E6
:100E6000B70120E030E040E05FE40E9499080E9472
:100E70002B0B9B01AC01205030404040504806C035
:100E8000C801B7010E942B0B9B01AC01B901CA013B
:100E90001F910F91FF90EF900895A0E0B0E0E3E57F
:100EA000F7E00C94740DDC012B01FA019C91923057
:100EB00008F439C1EB018881823008F433C19430E1
:100EC00069F4843009F02FC111969C9111978981A2
:100ED000981709F428C1A3E0B1E025C1843009F4D2
:100EE00021C18230A9F4923009F01DC19A01AD01EF
:100EF00088E0EA010990AE01E90109929E01815062
:100F0000C1F7E201898111969C918923818308C1EF
:100F1000923009F407C112962D903C901397EB0183
:100F20008A819B811496AD90BD90CD90DC901797EF
:100F3000EC80FD800E811F819101281B390BB901C6
:100F400037FF04C066277727621B730B6032710579
:100F50000CF061C0121613066CF537014801062E1D
:100F600004C096948794779467940A94D2F721E00A
:100F700030E040E050E004C0220F331F441F551FF3
:100F80006A95D2F721503040404050402E213F21F9
:100F900040235123211531054105510521F021E060
:100FA00030E040E050E079018A01E628F72808297E
:100FB00019293CC0232BD1F1260E371E35014601DD
:100FC000062E04C096948794779467940A94D2F777
:100FD00021E030E040E050E004C0220F331F441F06
:100FE000551F6A95D2F721503040404050402A2189
:100FF0003B214C215D21211531054105510521F091
:1010000021E030E040E050E059016A01A628B7280D
:10101000C828D9280BC0821593052CF01C01AA24DE
:10102000BB24650103C0EE24FF24870111969C9127
:10103000D20111968C91981709F445C0992339F083
:10104000A80197012A193B094C095D0906C0A601B0
:1010500095012E193F09400B510B57FD08C0118215
:101060003382228224833583468357831DC081E0E7
:1010700081833382228288279927DC01821B930B8C
:10108000A40BB50B84839583A683B7830DC0220F71
:10109000331F441F551F2483358346835783828122
:1010A000938101979383828324813581468157817F
:1010B000DA01C9010197A109B1098F5F9F4FAF4FB5
:1010C000BF4328F30BC0918333822282EA0CFB1CBE
:1010D0000C1D1D1DE482F5820683178383E0808347
:1010E000248135814681578157FF1AC0C901AA273B
:1010F00097FDA095BA2F81709070A070B070569532
:10110000479537952795822B932BA42BB52B84835A
:101110009583A683B783828193810196938382838B
:10112000DF0101C0D201CD01CDB7DEB7E2E10C9401
:10113000900DA0E2B0E0EFE9F8E00C94800D698337
:101140007A838B839C832D833E834F835887E9E08A
:10115000EE2EF12CEC0EFD1ECE010196B7010E9481
:10116000A30C8E010F5E1F4FCE010596B8010E94A1
:10117000A30C8A8991E089278A8BC701B801AE0147
:10118000475E5F4F0E944D070E94CE0BA096E6E09F
:101190000C949C0DA0E2B0E0E0EDF8E00C94800D22
:1011A00069837A838B839C832D833E834F83588707
:1011B000F9E0EF2EF12CEC0EFD1ECE010196B701E9
:1011C0000E94A30C8E010F5E1F4FCE010596B80141
:1011D0000E94A30CC701B801AE01475E5F4F0E9499
:1011E0004D070E94CE0BA096E6E00C949C0DA0E269
:1011F000B0E0EDEFF8E00C94740D69837A838B8393
:101200009C832D833E834F835887CE010196BE0178
:10121000675F7F4F0E94A30CCE010596BE016F5EF3
:101220007F4F0E94A30C9985923088F08989823083
:10123000C8F0943019F4823051F404C0843029F499
:10124000923081F483E091E0C6C0923049F420E00E
:101250009A858A89981321E02A87CE010996BBC016
:10126000823049F420E09A858A89981321E02A8BFC
:10127000CE014196B0C02D843E844F8458886D883D
:101280007E888F88988CEE24FF248701AA24BB24B3
:10129000650140E050E060E070E0E0E0F0E0C101B6
:1012A00081709070892BE9F0E60CF71C081D191D60
:1012B0009A01AB012A0D3B1D4C1D5D1D80E090E0A5
:1012C000A0E0B0E0E614F7040805190520F481E079
:1012D00090E0A0E0B0E0BA01A901480F591F6A1FD1
:1012E0007B1FAA0CBB1CCC1CDD1C97FE08C081E038
:1012F00090E0A0E0B0E0A82AB92ACA2ADB2A3196F9
:10130000E032F10549F0660C771C881C991C569454
:10131000479437942794C3CFFA85EA892B893C896F
:101320008B859C85280F391F2E5F3F4F17C0CA0140
:1013300081709070892B61F016950795F794E7946A
:1013400080E090E0A0E0B0E8E82AF92A0A2B1B2B05
:1013500076956795579547952F5F3F4F77FDE7CF78
:101360000CC0440F551F661F771F17FD4160EE0C20
:10137000FF1C001F111F21503040403090E05907E2
:1013800090E0690790E4790760F32B8F3C8FDB01D5
:10139000CA018F779070A070B07080349105A1055C
:1013A000B10561F447FD0AC0E114F104010511051E
:1013B00029F0405C5F4F6F4F7F4F40781A8EFE17C9
:1013C00011F081E08A8F4D8F5E8F6F8F78A383E05D
:1013D000898FCE0149960E94CE0BA096E2E10C9433
:1013E000900DA8E1B0E0E7EFF9E00C947C0D698383
:1013F0007A838B839C832D833E834F835887B9E008
:10140000EB2EF12CEC0EFD1ECE010196B7010E94D1
:10141000A30C8E010F5E1F4FCE010596B8010E94EE
:10142000A30C2985223008F47EC03989323010F4AB
:10143000B8017CC08A859A8989278A87243011F06F
:10144000223031F4231709F06EC063E071E06EC002
:10145000343039F41D861E861F86188A1C861B862A
:1014600004C0323021F484E08987B7015FC02B8546
:101470003C858B899C89281B390B3C872B87ED8405
:10148000FE840F851889AD88BE88CF88D88CEA1471
:10149000FB040C051D0540F4EE0CFF1C001F111F82
:1014A000215030403C872B8720E030E040E050E086
:1014B00080E090E0A0E0B0E460E070E0EA14FB04BB
:1014C0000C051D0540F0282B392B4A2B5B2BEA1805
:1014D000FB080C091D09B695A79597958795EE0C05
:1014E000FF1C001F111F6F5F7F4F6F31710531F7B8
:1014F000DA01C9018F779070A070B07080349105C7
:10150000A105B10561F427FD0AC0E114F10401054C
:10151000110529F0205C3F4F4F4F5F4F20782D87FA
:101520003E874F87588BBE01675F7F4FCB010E947C
:10153000CE0B6896EAE00C94980DA8E1B0E0E3EADF
:10154000FAE00C94800D69837A838B839C832D83CE
:101550003E834F83588789E0E82EF12CEC0EFD1E68
:10156000CE010196B7010E94A30C8E010F5E1F4FA2
:10157000CE010596B8010E94A30C8985823040F007
:101580008989823028F0C701B8010E941B0D01C073
:101590008FEF6896E6E00C949C0DA8E0B0E0E3EDD8
:1015A000FAE00C947D0D9B01AC0183E08983DA01A4
:1015B000C9018827B7FD83959927AA27BB27B82E8D
:1015C000211531054105510519F482E089833AC09E
:1015D0008823A9F0203080E0380780E0480780E8C1
:1015E000580729F460E070E080E09FEC30C0EE2402
:1015F000FF248701E21AF30A040B150B02C07901DC
:101600008A018EE1C82ED12CDC82CB82ED82FE8253
:101610000F831887C801B7010E947F0B0197181626
:10162000190684F4082E04C0EE0CFF1C001F111FC5
:101630000A94D2F7ED82FE820F831887C81AD90A5E
:10164000DC82CB82BA82CE0101960E94CE0B289614
:10165000E9E00C94990DACE0B0E0E1E3FBE00C9420
:10166000840D69837A838B839C83CE010196BE01AE
:101670006B5F7F4F0E94A30C8D81823061F18230BD
:1016800050F1843021F48E81882351F12EC02F81B6
:10169000388537FD20C06E812F3131051CF066235F
:1016A000F9F023C08EE190E0821B930B29853A85E7
:1016B0004B855C8504C056954795379527958A9547
:1016C000D2F76623B1F050954095309521953F4F64
:1016D0004F4F5F4F0EC020E030E040E050E009C0C7
:1016E0002FEF3FEF4FEF5FE704C020E030E040E036
:1016F00050E8B901CA012C96E2E00C94A00DEF92DB
:10170000FF920F931F937B018C0180E0E81680E02D
:10171000F80681E0080780E0180788F48FEFE816E4
:10172000F1040105110531F028F088E090E0A0E017
:10173000B0E017C080E090E0A0E0B0E012C080E030
:10174000E81680E0F80680E0080781E0180728F036
:1017500088E190E0A0E0B0E004C080E190E0A0E08B
:10176000B0E020E230E040E050E0281B390B4A0BAB
:101770005B0B04C016950795F794E7948A95D2F70A
:10178000F701E55FFE4F8081281B310941095109AE
:10179000C9011F910F91FF90EF900895DF92EF9292
:1017A000FF920F931F93FC01E480F580068117815F
:1017B000D1808081823048F480E090E0A0E1B0E008
:1017C000E82AF92A0A2B1B2BA5C0843009F49FC0F4
:1017D000823021F4EE24FF24870105C0E114F104D6
:1017E0000105110519F4E0E0F0E096C06281738113
:1017F0009FEF623879070CF05BC022E83FEF261BB1
:10180000370B2A3131052CF020E030E040E050E089
:101810002AC0B801A701022E04C076956795579596
:1018200047950A94D2F781E090E0A0E0B0E004C0D0
:10183000880F991FAA1FBB1F2A95D2F70197A109EC
:10184000B1098E219F21A023B1230097A105B105E5
:1018500021F081E090E0A0E0B0E09A01AB01282BFC
:10186000392B4A2B5B2BDA01C9018F779070A0705E
:10187000B07080349105A105B10539F427FF09C086
:10188000205C3F4F4F4F5F4F04C0215C3F4F4F4F95
:101890005F4FE0E0F0E02030A0E03A07A0E04A0728
:1018A000A0E45A0710F0E1E0F0E079018A0127C0D6
:1018B0006038710564F5FB01E158FF4FD801C7019D
:1018C0008F779070A070B07080349105A105B1053C
:1018D00039F4E7FE0DC080E490E0A0E0B0E004C081
:1018E0008FE390E0A0E0B0E0E80EF91E0A1F1B1F96
:1018F00017FF05C016950795F794E794319687E092
:1019000016950795F794E7948A95D1F705C0EE24CC
:10191000FF248701EFEFF0E06E2F6795662767954C
:10192000902F9F77D794DD24D7948E2F8695492FBB
:10193000462B582F5D29B701CA011F910F91FF90C7
:10194000EF90DF900895FC01DB01408151812281FD
:10195000622F6F7770E0221F2227221F9381892F29
:10196000880F822B282F30E0991F9927991F1196F5
:101970009C93119721153105A9F541155105610574
:10198000710511F482E037C082E89FEF13969C93B3
:101990008E9312979A01AB0167E0220F331F441F09
:1019A000551F6A95D1F783E08C930DC0220F331F2A
:1019B000441F551F12968D919C9113970197139672
:1019C0009C938E931297203080E0380780E0480780
:1019D00080E4580758F314962D933D934D935C93F0
:1019E000179708952F3F310579F441155105610589
:1019F000710519F484E08C93089564FF03C081E0BD
:101A00008C9312C01C9210C02F57304013963C93F9
:101A10002E93129783E08C9387E0440F551F661F27
:101A2000771F8A95D1F7706414964D935D936D93EB
:101A30007C93179708951F93DC01FB019C919230D2
:101A400008F447C08081823008F443C0943051F4D8
:101A500011961C91843099F58181682F70E0611B8B
:101A600071093FC0843021F0923031F48230B9F1F5
:101A70008181882389F12DC011961C9111978230A4
:101A8000F1F081811817D9F412962D913C9113979A
:101A9000828193818217930794F028173907BCF04D
:101AA00014968D919D910D90BC91A02D248135812E
:101AB00046815781281739074A075B0718F4112315
:101AC00041F00AC082179307A407B50740F4112319
:101AD00019F061E070E005C06FEF7FEF02C060E0D9
:101AE00070E0CB011F9108952F923F924F925F9229
:101AF0006F927F928F929F92AF92BF92CF92DF921E
:101B0000EF92FF920F931F93CF93DF93CDB7DEB782
:101B1000CA1BDB0B0FB6F894DEBF0FBECDBF099416
:101B20002A88398848885F846E847D848C849B846D
:101B3000AA84B984C884DF80EE80FD800C811B817B
:101B4000AA81B981CE0FD11D0FB6F894DEBF0FBEAA
:101B5000CDBFED01089503D0E39528C00FC13FD05C
:101B6000E8F3E894E0E0BB279F57F0F02AED3FE070
:101B700049EC06C0EE0FBB0F661F771F881F28F0C9
:101B8000B23A62077307840728F0B25A620B730BEC
:101B9000840BE3959A9572F7803830F49A95BB0FD1
:101BA000661F771F881FD2F79048DCC0EF93E0FFD5
:101BB00006C0A2EA2AED3FE049EC5FEB5DD000D120
:101BC0000F90039401FC9058E8E9F0E0DAC057FD6B
:101BD0009058440F551F59F05F3F71F04795880F9B
:101BE00097FB991F61F09F3F79F087950895121632
:101BF00013061406551FF2CF4695F1DF08C01616DE
:101C000017061806991FF1CF86957105610508948E
:101C10000895E5DFE0F09E37D8F09639B8F49E38A5
:101C200048F4672F782F8827985FF9CF86957795A6
:101C3000679593959539D0F3B62FB1706B0F711DE1
:101C4000811D20F487957795679593956EC088C020
:101C5000C9C09F9384DF0F9007FCEE5FA7CFA2D08F
:101C600030F0A7D020F031F49F3F11F41EF486C06D
:101C70000EF4E095E7FB53C0E92FA9DF80F3BA1714
:101C8000620773078407950718F071F49EF5A9C0E1
:101C90000EF4E0950B2EBA2FA02D0B01B901900187
:101CA0000C01CA01A0011124FF27591B99F0593FCB
:101CB00050F4503E68F11A16F040A22F232F342F13
:101CC0004427585FF3CF469537952795A795F04061
:101CD0005395C9F77EF41F16BA0B620B730B840B76
:101CE000BAF09150A1F0FF0FBB1F661F771F881F2E
:101CF000C2F70EC0BA0F621F731F841F48F4879586
:101D000077956795B795F7959E3F08F0B3CF939574
:101D1000880F08F09927EE0F97958795089597F902
:101D20009F6780E870E060E00895882371F477236E
:101D300021F09850872B762F07C0662311F499273E
:101D40000DC09051862B70E060E02AF09A95660FE6
:101D5000771F881FDAF7880F9695879597F908956A
:101D60009F3F31F0915020F4879577956795B7950F
:101D7000880F911D9695879597F908959FEF80ECB0
:101D800008959F938F937F936F93FF93EF939B019E
:101D9000AC012DDAEF91FF912BD02F913F914F9114
:101DA0005F9125CA00240A9416161706180609061C
:101DB000089500240A9412161306140605060895C1
:101DC000092E0394000C11F4882352F0BB0F40F449
:101DD000BF2B11F460FF04C06F5F7F4F8F4F9F4F89
:101DE0000895E894BB2766277727CB0197F90895D4
:101DF000DF93CF931F930F93FF92EF92DF927B01BC
:101E00008C01689405C0DA2EEF0121D0FE01E89420
:101E1000A5912591359145915591AEF3EF012CDFB8
:101E2000FE019701A801DA9479F7DF90EF90FF9017
:101E30000F911F91CF91DF910895B4DF28F0B9DFA2
:101E400018F0952309F06BCF99CF1124CBCFBFDECB
:101E5000A0F3959FD1F3950F50E0551F629FF001BD
:101E6000729FBB27F00DB11D639FAA27F00DB11D16
:101E7000AA1F649F6627B00DA11D661F829F22279F
:101E8000B00DA11D621F739FB00DA11D621F839F26
:101E9000A00D611D221F749F3327A00D611D231FFC
:101EA000849F600D211D822F762F6A2F11249F574A
:101EB00050408AF0E1F088234AF0EE0FFF1FBB1F6D
:101EC000661F771F881F91505040A9F79E3F51050C
:101ED00070F025CF87CF5F3FECF3983EDCF386951B
:101EE00077956795B795F795E7959F5FC1F7FE2BB7
:101EF000880F911D9695879597F90895F894FFCFCF
:101F00001232320000000000000000000102020353
:101F1000030303040404040404040405050505057F
:101F2000050505050505050505050506060606065C
:101F30000606060606060606060606060606060641
:101F4000060606060606060606060607070707072C
:101F50000707070707070707070707070707070711
:101F60000707070707070707070707070707070701
:101F700007070707070707070707070707070707F1
:101F800007070707070707070707070808080808DC
:101F900008080808080808080808080808080808C1
:101FA00008080808080808080808080808080808B1
:101FB00008080808080808080808080808080808A1
:101FC0000808080808080808080808080808080891
:101FD0000808080808080808080808080808080881
:101FE0000808080808080808080808080808080871
:101FF0000808080808080808080808080808080861
:0C2000000808080808080808080808007C
:00000001FF
