:100000000C9479010C9498010C9498010C9498012B
:100010000C9498010C9498010C9498010C949801FC
:100020000C9498010C9498010C9498010C949801EC
:100030000C9498010C9498010C9498010C949801DC
:100040000C9498010C9498010C9498010C949801CC
:100050000C9498010C9443080C9498010C9498010A
:100060000C9498010C9498010C9498010C949801AC
:100070000C9498010C9498010C9498010C9498019C
:100080000C9498010C9498010C9498010C9498018C
:100090000C9498010C949801084AD73B3BCE016E12
:1000A00084BCBFFDC12F3D6C74319ABD56833DDACF
:1000B0003D00C77F11BED9E4BB4C3E916BAAAABEDE
:1000C000000000803F05A84CCDB2D44EB93836A907
:1000D000020C50B9918688083CA6AAAA2ABE000044
:1000E00000803F000000000000005F0000000300EF
:1000F0000300143E143E14242A7F2A124333086658
:100100006136495522500005030000001C224100C1
:100110000041221C0014083E081408083E0808008C
:100120005030000008080808080060600000201037
:100130000804023E5149453E0004027F00426151DD
:10014000494622414949361814127F102745454532
:10015000393E494949320101710907364949493651
:10016000264949493E003636000000563600000850
:100170001422410014141414140041221408020122
:100180005109063E4159555E7E0909097E7F49495C
:1001900049363E414141227F4141413E7F494949E3
:1001A000417F090909013E4141493A7F0808087F1A
:1001B00000417F4100304040403F7F081422417F92
:1001C000404040407F020C027F7F0204087F3E4196
:1001D00041413E7F090909061E2121215E7F09094F
:1001E0000976264949493201017F01013F404040DB
:1001F0003F1F2040201F7F2010207F41221C2241D2
:1002000007087008076151494543007F410000021B
:10021000040810200000417F000402010204404055
:10022000404040000102040020545454787F44446C
:1002300044383844444444384444447F3854545443
:100240001804047E0505085454543C7F08040478BF
:1002500000447D40002040443D007F1028440000C1
:10026000417F40007C047804787C0804047838449A
:100270004444387C14141408081414147C007C08BA
:100280000404485454542004043F44443C40402057
:100290007C1C2040201C3C4030403C44281028441A
:1002A0000C5050503C4464544C44000836414100CA
:1002B000007F00004141360800020102040281FF74
:1002C0007E183C7E7EFFFFE7C3C3C3E77E7E3C0013
:1002D0003C7EFFFFFF54D692B2A6A4B612007EC3A6
:1002E00099BDBD99C37E003048083C7EFFFFFF7E6C
:1002F0003C0011241FBECFEFD0E2DEBFCDBF12E025
:10030000A0E0B1E0E0EDFDE200E00BBF02C007902D
:100310000D92A433B107D9F712E0A4E3B2E001C013
:100320001D92AF3EB107E1F70E94880A0C94E616D1
:100330000C940000F89480914402909144029170D2
:1003400090934402789485950895DC01009799F084
:10035000FB013197E80FF91F0BC080819C91892721
:100360008C939081982790838C9189278D933197D6
:10037000AE17BF0790F308956F927F929F92AF924E
:10038000BF92CF92DF92EF92FF920F931F93DF9372
:10039000CF93CDB7DEB7688879888E010A5E1F4F8C
:1003A000992487C0653209F07AC08181843639F199
:1003B00085363CF4853209F466C0833609F06BC09B
:1003C00053C0833709F067C032E0C32ED12CC00E72
:1003D000D11ED801AD90BC9010E00AC0772767FD10
:1003E00070958F2D9E2D0E94DA13F82EE92E1F5F37
:1003F000F501E10FF11D6081662381F74DC022E018
:10040000C22ED12CC00ED11ED801ED91FC9190E0EE
:10041000A92E91E0B92E00E010E016C0CF016AE0ED
:1004200070E00E9411138A30910514F0895A01C0BE
:10043000805DD5018D935D010F5F1F4FCF016AE095
:1004400070E00E941113FB01309741F7F801E05072
:10045000FF4F108280E091E0B8010E94A5018F2D2E
:100460009E2D60E071E00AC082E0C82ED12CC00E43
:10047000D11EF801608171818F2D9E2D0E94DA13AB
:10048000F82EE92E09C08F2D9E2D65E270E00E94A6
:10049000DA13F82EE92E68019394860109C07727B4
:1004A00067FD70958F2D9E2D0E94DA13F82EE92E90
:1004B0009394F301E90DF11D6081662309F072CF79
:1004C0008F2D9E2D60E070E00E94DA136A897B898F
:1004D0004C895D890E94A806CF91DF911F910F91F1
:1004E000FF90EF90DF90CF90BF90AF909F907F9064
:1004F0006F9008958F929F92BF92CF92DF92EF926A
:10050000FF920F931F93DF93CF93CDB7DEB78E018A
:10051000025F1F4FD8018D909D908D01BB2477C045
:10052000853209F06EC08181843619F185363CF43C
:10053000853209F45EC0833609F05FC04FC083374F
:1005400009F05BC072E0C72ED12CC00ED11EF8019D
:10055000E080F18010E006C0992787FD90950E9409
:10056000C9051F5FF701E10FF11D80818823A1F705
:1005700045C062E0C62ED12CC00ED11ED801ED912F
:10058000FC9150E0E52E51E0F52E00E010E016C0A1
:10059000CF016AE070E00E9411138A30910514F0D7
:1005A000895A01C0805DD7018D937D010F5F1F4F78
:1005B000CF016AE070E00E941113FB01309741F710
:1005C000F801E050FF4F108280E091E0B8010E94F6
:1005D000A50180E091E00E94830610C042E0C42E95
:1005E000D12CC00ED11EF801808191810E94C905D5
:1005F00005C085E290E00E94C9056801B3948601B8
:1006000005C0992787FD90950E94C905B394F40110
:10061000EB0DF11D8081882309F082CFCF91DF910E
:100620001F910F91FF90EF90DF90CF90BF909F9020
:100630008F90089593E89093B00091E09093B1006B
:100640008093B30008959C0190934A0280934902DD
:1006500086E390E0809300402115310589F480EF16
:1006600090E0909346028093450280E491E090935D
:1006700048028093470288E490E0809300413BC0A9
:100680002130310589F480E491E090934602809313
:10069000450280EF90E0909348028093470288EEF5
:1006A00090E08093004127C02230310589F480EF2B
:1006B00090E0909346028093450280E491E090930D
:1006C00048028093470288E890E08093004113C07D
:1006D0002330310581F480E491E0909346028093C9
:1006E000450280EF90E0909348028093470288E2B1
:1006F00090E0809300418AE290E08093004020E007
:1007000030E0309300412093004180914502909168
:100710004602019790930041809300418BE290E064
:100720008093004030930041209300418091470224
:100730009091480201979093004180930041089561
:100740001F93682F873718F010E066E711C08830D4
:1007500010F468E00CC08D3310F010E009C08F3148
:1007600010F011E005C0803110F012E001C013E07C
:1007700081EB90E0809300401093004170E0882767
:1007800077FD8095982F0E946A109B01AC0160E074
:1007900070E080EF94E40E948E0F0E94BE0C70E027
:1007A00002C0759567951A95E2F7609300411F9115
:1007B00008950F931F93DF93CF93CDB7DEB728979C
:1007C0000FB6F894DEBF0FBECDBF29833A834B83AB
:1007D0005C836D837E838F83988769817A812B8187
:1007E0003C81ED81FE814F8158858AE290E08093C3
:1007F000004070930041609300413093004120938A
:1008000000418BE290E080930040F0930041E09340
:10081000004150930041409300418CE290E080936E
:1008200000402F5F3F4F261B370B4F5F5F4F4E1B24
:100830005F0B24173507C8F4842F877090E0829FE0
:10084000B001839F700D929F700D1124F3E05695B7
:100850004795FA95E1F7842F90E0829FF001839FFE
:10086000F00D929FF00D112418C0822F877090E038
:10087000849FB001859F700D949F700D1124E3E05B
:1008800036952795EA95E1F7822F90E0849FF00155
:10089000859FF00D949FF00D1124862F877005C061
:1008A000109300410093004181508823C9F7CB0188
:1008B00023E0969587952A95E1F78E0F9F1F21C01B
:1008C00010930041009300411093004100930041B8
:1008D00010930041009300411093004100930041A8
:1008E0001093004100930041109300410093004198
:1008F0001093004100930041109300410093004188
:1009000001970097E9F628960FB6F894DEBF0FBE60
:10091000CDBFCF91DF911F910F910895EF92FF927C
:100920000F931F93DF93CF93CDB7DEB728970FB602
:10093000F894DEBF0FBECDBF29833A834B835C831F
:100940006D837E838F83988729813A81AB81BC81B7
:10095000ED80FE806F8178858AE290E08093004090
:100960003093004120930041B0930041A093004197
:100970008BE290E080930040F0920041E0920041D1
:1009800070930041609300418CE290E080930040BE
:100990000FC0F801819191918F0190930041809354
:1009A00000414F5F5F4F6417750798F72F5F3F4F08
:1009B000A217B30710F0A701F6CF28960FB6F89448
:1009C000DEBF0FBECDBFCF91DF911F910F91FF9082
:1009D000EF9008950F931F93DF93CF93CDB7DEB7BA
:1009E00028970FB6F894DEBF0FBECDBF10924C0211
:1009F00010924B0210924E0210924D02209145022D
:100A00003091460221503040809147029091480237
:100A100001971A821982422F3C832B831E821D82EA
:100A200098878F83009151021091520229813A8157
:100A30005C816D817E8198850E94D90328960FB6CE
:100A4000F894DEBF0FBECDBFCF91DF911F910F9104
:100A5000089586E08093750080E8809374003F9A43
:100A6000249A80ED97E00197F1F7479880E49CE99C
:100A70000197F1F7479A80EB94E028EC30E0F90118
:100A80003197F1F70197D9F788E290E08093004021
:100A900081E190E08093004088E592E028EC30E02E
:100AA000F9013197F1F70197D9F741E050E08BEC6C
:100AB00090E0809300404093004180EC90E0809370
:100AC000004088E096E2909300418093004120E14D
:100AD00030E081EC90E0809300402093004185EC71
:100AE00090E0809300408EE395E3909300418093E3
:100AF000004125EB30E087EC90E0809300402093AC
:100B0000004186EF90E0809300404093004180E0F8
:100B100090E0909300418093004125E530E08AE326
:100B200090E0809300402093004181E090E00E949B
:100B300023030E94EA0410924C0210924B0210927E
:100B40004E0210924D0210925202109251028FEFFB
:100B50009FEF9093500280934F0289E290E0809340
:100B6000004084EF91E028EC30E0F9013197F1F793
:100B70000197D9F780E090E025E330E02093004032
:100B80008093004180916A00806280936A002C9A71
:100B90000895CF92DF92EF92FF920F931F93CF931E
:100BA000DF93982F40914B0250914C028A010C5FC9
:100BB0001F4F20914D0230914E028A30A9F41092BD
:100BC0004C0210924B02285F3F4F30934E0220930D
:100BD0004D0280914702909148022817390708F486
:100BE00089C00E94EA0486C080528F3508F082C016
:100BF000E901279685E09802F0011124ED5BFF4F93
:100C00008BE290E0809300403093004120930041BC
:100C1000D0930041C0930041BAE2CB2ED12CACE27C
:100C2000EA2EF12C29C0C09200405093004140931D
:100C300000415093004140930041E0920040B49144
:100C4000B901A1E013C08A2F8B2329F080914F02B4
:100C50009091500204C08091510290915202909361
:100C60000041809300416F5F7F4FAA0FC617D707DF
:100C700050F731964F5F5F4F04171507A0F68AE2D1
:100C800090E0809300405093004140930041509386
:100C90000041409300418CE290E0809300400AC004
:100CA00080915102909152029093004180930041B3
:100CB0002F5F3F4FC217D30798F780914B02909157
:100CC0004C02069690934C0280934B022091450271
:100CD000309146028217930768F010924C021092EE
:100CE0004B0280914D0290914E02089690934E02D5
:100CF00080934D02DF91CF911F910F91FF90EF9064
:100D0000DF90CF9008951F93CF93DF93EC0110E015
:100D100003C00E94C9051F5FFE01E10FF11D808124
:100D20008823B9F7DF91CF911F91089590934C02DA
:100D300080934B0270934E0260934D0208959093FE
:100D4000500280934F0270935202609351020895B3
:100D50001F93CF93DF93EC0170934C0260934B028F
:100D600050934E0240934D0210E003C00E94C9050B
:100D70001F5FFE01E10FF11D80818823B9F7DF912C
:100D8000CF911F910895EF92FF920F931F93CF93EE
:100D9000DF93C0E0D0E010E8E12EF12C082F10E046
:100DA000C7010C2E02C0959587950A94E2F780231F
:100DB0009123892B11F081E301C08EE20E94C905C5
:100DC0002196C830D10561F7DF91CF911F910F9126
:100DD000FF90EF9008950F931F938901DC018AE241
:100DE00090E0809300407093004160930041685F01
:100DF0007F4F70930041609300418BE290E08093BD
:100E0000004050930041409300414F5E5F4F50932C
:100E10000041409300418CE290E080930040FD014E
:100E2000119664916623A1F050E041E0842F86235F
:100E300011F0980104C02091510230915202309378
:100E40000041209300415F5F593049F3440FEECFDA
:100E50001F910F910895CF93DF9360E0CCEFDFEF08
:100E60003BC0E62FF0E0EE0FFF1FDF01A55ABD4F9C
:100E70008D919C912091220130912301E953FD4FE6
:100E80000190F081E02D4091240150912501821BB9
:100E9000930B07960F97F8F4CE01841B950B8E0FDA
:100EA0009F1F0B964797B8F400D000D089E091E0DF
:100EB000EDB7FEB792838183809134029091350221
:100EC000948383830E947A02109226010F900F90E0
:100ED0000F900F9006C06F5F80912701681708F48C
:100EE000C0CFDF91CF910895CF92DF92EF92FF9222
:100EF0000F931F93CF93DF9360E001E010E0B2C047
:100F0000C62FD0E0FE01EE0FFF1FDF01A55ABD4F37
:100F10002D913C918091380290913902E953FD4F17
:100F20000190F081E02D40913A0250913B02D801AE
:100F3000A81BB90BCD01820F931F07960F9708F0DE
:100F400090C0C801841B950B8E0F9F1F0B9647976F
:100F500008F087C020913402309135022C593F4F60
:100F60003093350220933402B3E0283E3B07A4F0CF
:100F700080914002882381F485E090E090936402A0
:100F8000809363029093D0028093CF0285E0809398
:100F9000270181E080934002E7E0203D3E07A4F076
:100FA00080914102882381F485E090E0909366026D
:100FB000809365029093D2028093D10286E0809361
:100FC000270181E080934102285B3B40A4F080919F
:100FD0004202882381F485E090E090936802809338
:100FE00067029093D4028093D30287E08093270115
:100FF00081E080934202CE01880F991F3BE5C32E0A
:1010000032E0D32EC80ED91E27ECE22E22E0F22EBB
:10101000E80EF91E0E94CA136CE271E00E941113DF
:101020008C010E94CA136CED70E00E9411139C01A8
:10103000D60111961C930E93F701918380838091C2
:101040002201909123014091240150912501801BA0
:10105000910BC39774F0421B530B43335105D4F6E5
:1010600008C06F5F80912701681708F449CFC0E07E
:10107000D0E0CE01DF91CF911F910F91FF90EF90C3
:10108000DF90CF9008951F920F920FB60F920BB67C
:101090000F921124AF92BF92CF92DF92EF92FF9204
:1010A0000F931F932F933F934F935F936F937F9370
:1010B0008F939F93AF93BF93EF93FF938CB184FD76
:1010C00002C020E001C023E085FF02C081E02827A4
:1010D00090914302921B90FF09C02093430280919C
:1010E000440281509270890F8093440280913D02A6
:1010F0008B3008F4DDC010923D02609144027727E6
:1011000067FD7095872F972F0E946A1020E030E0CE
:1011100040E251E40E948E0F0E94E7159B01AC0152
:101120000E94670E0E94C7155B016C01609144022A
:10113000772767FD7095872F972F0E946A1020E010
:1011400030E040E251E40E948E0F0E9447149B0160
:10115000AC010E94670E0E94C7157B018C01609153
:10116000220170912301882777FD8095982F0E9496
:101170006A10A60195010E94670E0E94C810709324
:101180002301609322016091240170912501882739
:1011900077FD8095982F0E946A10A80197010E9400
:1011A000670E0E94C8107093250160932401C60148
:1011B000B501A80197010E94F41360931E0170937A
:1011C0001F01809320019093210140E050E030C046
:1011D0002091220130912301FA01EE0FFF1FE55A01
:1011E000FD4F808191812817390724F480819181F6
:1011F000019703C080819181019691838083209122
:10120000240130912501FA01EE0FFF1FE953FD4F34
:10121000808191812817390724F480819181019779
:1012200003C0808191810196918380834F5F5F4FDE
:101230008091270190E04817590754F20E947407E3
:1012400080912201909123018054914034F081E0FB
:1012500090E090932301809322018091240190914A
:101260002501803F910534F081E090E090932501C5
:101270008093240180912201909123011816190670
:1012800034F08FE391E090932301809322018091C9
:101290002401909125011816190634F08FEE90E084
:1012A000909325018093240181E080933C0205C046
:1012B00080913D028F5F80933D0280913F028823A1
:1012C000C1F08091360290913702855F91403CF0E9
:1012D000109237021092360210923F0223C0809182
:1012E000360290913702019690933702809336022E
:1012F00019C080913E028823A9F4679913C081E048
:1013000080933E02809122019091230190933902B3
:1013100080933802809124019091250190933B02A3
:1013200080933A02FF91EF91BF91AF919F918F917E
:101330007F916F915F914F913F912F911F910F91ED
:10134000FF90EF90DF90CF90BF90AF900F900BBECB
:101350000F900FBE0F901F901895CF93DF93279A91
:101360002F9880E88093610081E0809361006C9801
:10137000749A6D98759A6F98779A82E084BD83E02D
:1013800085BD8CE787BD80916E00826080936E0082
:101390000E9429058DE30E94A00381E090E00E9455
:1013A000230348EC50E050935C0240935B028CE2D4
:1013B00091E090935E0280935D0224E630E03093EA
:1013C000600220935F0286E990E09093620280932E
:1013D00061023093C8022093C7029093CA0280939F
:1013E000C9025093CC024093CB0284E190E09093E9
:1013F000CE028093CD028FE190E09093DC02809347
:10140000DB0280E094E09093DE028093DD0280E1D5
:1014100090E89093E0028093DF0280E098EF909351
:10142000E2028093E10280E29DEF9093E4028093D8
:10143000E30289EF9DEF9093E6028093E50280E15D
:1014400090E09093E8028093E70240E050E035C0DE
:10145000DA01AA0FBB1FFD01E55AFD4F8081918182
:101460009A0163E0220F331F6A95E1F721593D4F3E
:10147000E90199838883808191810896FA0133E09C
:10148000EE0FFF1F3A95E1F7EF58FD4F91838083F0
:10149000FD01E953FD4F80819181AA0FBB1FAA0F67
:1014A000BB1FAD58BD4F11969C938E938081918147
:1014B0000E969F838E834F5F5F4F8091270190E050
:1014C000481759072CF280912201909123019093A3
:1014D000C0028093BF02809122019091230108965F
:1014E0009093C2028093C1028091240190912501C2
:1014F0009093C4028093C3028091240190912501AE
:1015000008969093C6028093C502DF91CF9108950B
:101510002F923F924F925F926F927F928F929F9203
:10152000AF92BF92CF92DF92EF92FF920F931F93F1
:10153000CF93DF930E94AD09609122017091230146
:1015400040912401509125018EEB92E020EE3FEF77
:101550000E94EB0660915B0270915C024091C702B1
:101560005091C8022091DB023091DC0280ED92E0C4
:101570000E94EB0660915D0270915E024091C9028B
:101580005091CA022091DD023091DE0280ED92E09E
:101590000E94EB0660915F02709160024091CB0265
:1015A0005091CC022091DF023091E00280ED92E078
:1015B0000E94EB0660916102709162024091CD023F
:1015C0005091CE022091E1023091E20280ED92E052
:1015D0000E94EB0678940F2EF0E06F2EF0E07F2E45
:1015E000F0E08F2EF0E09F2EF02D31E0432E512CB5
:1015F00020E2222E2EE4322EA9C180913E028823C1
:1016000069F060901E0170901F0180902001909001
:10161000210110923E0221E020933F0280913F027F
:10162000882309F4C7C0209153023091540240919D
:101630005502509156026091570270915802809164
:10164000590290915A0200E010E00E94D903E09004
:101650003802F0903902C401B3010E94E7155B0122
:101660006C010027F7FC0095102FC801B7010E94FC
:101670006A107B018C01C601B50120E030E040EA30
:1016800050E40E94940E9B01AC01C801B7010E9476
:10169000670E0E94C8107093390260933802E09080
:1016A0003A02F0903B02C401B3010E9447145B016F
:1016B0006C010027F7FC0095102FC801B7010E94AC
:1016C0006A107B018C01C601B50120E030E040EAE0
:1016D00050E40E94940E9B01AC01C801B7010E9426
:1016E000670E0E94C81070933B0260933A0280918B
:1016F0003802909139028054914024F0509239027E
:101700004092380280913A0290913B02803F9105CD
:1017100024F050923B0240923A028091380290911C
:1017200039021816190634F08FE391E090933902CC
:101730008093380280913A0290913B021816190664
:1017400034F0EFEEF0E0F0933B02E0933A02809148
:101750003802909139029093540280935302809101
:101760003802909139020396909356028093550265
:1017700080913A0290913B029093580280935702D5
:1017800080913A0290913B02039690935A02809383
:1017900059022091530230915402409155025091C8
:1017A0005602609157027091580290915A020FEFC1
:1017B0001FEF1AC0109239021092380210923B02A9
:1017C00010923A02209153023091540240915502F6
:1017D00050915602609157027091580280915902BF
:1017E00090915A0200E010E00E94D90380913C02DF
:1017F000882309F4A8C02091BF023091C002409113
:10180000C1025091C2026091C3027091C4028091E2
:10181000C5029091C60200E010E00E94D9038091B9
:101820002201909123019093C0028093BF02809186
:1018300022019091230108969093C2028093C102E5
:1018400080912401909125019093C4028093C3025A
:10185000809124019091250142969093C602809335
:10186000C5026091220170912301409124015091A1
:1018700025018EEB92E020EE3FEF0E94EB06C0E0E8
:10188000D0E056C07E0193E0EE0CFF1C9A95E1F784
:101890008FE692E0E80EF91EF70120813181428146
:1018A0005381648175818681978100E010E00E94F8
:1018B000D9039E01220F331FA901455A5D4FFA013A
:1018C00080819181F70191838083FA0180819181E8
:1018D0000896FE0103E0EE0FFF1F0A95E1F7EF58AF
:1018E000FD4F91838083D901A953BD4F8D919C9168
:1018F0001197F901EE0FFF1FEE0FFF1FED58FD4F7F
:10190000918380838D919C9111970E96F701978317
:101910008683FA01608171814D915C9125523D4F22
:10192000F9012081318180ED92E00E94EB06219641
:101930008091270190E0C817D9070CF4A3CF10922B
:101940003C020E942B07C1010197F1F7809126010B
:10195000882309F052CEDF91CF911F910F91FF9014
:10196000EF90DF90CF90BF90AF909F908F907F903F
:101970006F905F904F903F902F900895EF92FF925D
:101980000F931F937B018C0120E030E040E05FE487
:101990000E943A1088238CF0C801B70120E030E0A3
:1019A00040E05FE40E94360E0E94C8109B01AC012B
:1019B000205030404040504806C0C801B7010E9446
:1019C000C8109B01AC01B901CA011F910F91FF9092
:1019D000EF900895A0E0B0E0E0EFFCE00C94381345
:1019E000DC012B01FA019C91923008F439C1EB0122
:1019F0008881823008F433C1943069F4843009F06E
:101A00002FC111969C9111978981981709F428C1CB
:101A1000A8E2B1E025C1843009F421C18230A9F4E3
:101A2000923009F01DC19A01AD0188E0EA010990E8
:101A3000AE01E90109929E018150C1F7E20189815D
:101A400011969C918923818308C1923009F407C1C2
:101A500012962D903C901397EB018A819B811496EE
:101A6000AD90BD90CD90DC901797EC80FD800E81FD
:101A70001F819101281B390BB90137FF04C066276C
:101A80007727621B730B603271050CF061C0121670
:101A900013066CF537014801062E04C0969487940E
:101AA000779467940A94D2F721E030E040E050E068
:101AB00004C0220F331F441F551F6A95D2F72150CF
:101AC0003040404050402E213F21402351232115DA
:101AD00031054105510521F021E030E040E050E0C2
:101AE00079018A01E628F728082919293CC0232B07
:101AF000D1F1260E371E35014601062E04C09694FC
:101B00008794779467940A94D2F721E030E040E01C
:101B100050E004C0220F331F441F551F6A95D2F7AF
:101B200021503040404050402A213B214C215D2132
:101B3000211531054105510521F021E030E040E05B
:101B400050E059016A01A628B728C828D9280BC037
:101B5000821593052CF01C01AA24BB24650103C047
:101B6000EE24FF24870111969C91D20111968C914D
:101B7000981709F445C0992339F0A80197012A194B
:101B80003B094C095D0906C0A60195012E193F09C4
:101B9000400B510B57FD08C01182338222822483EF
:101BA0003583468357831DC081E08183338222823F
:101BB00088279927DC01821B930BA40BB50B848328
:101BC0009583A683B7830DC0220F331F441F551F73
:101BD000248335834683578382819381019793833E
:101BE00082832481358146815781DA01C9010197B9
:101BF000A109B1098F5F9F4FAF4FBF4328F30BC0BF
:101C0000918333822282EA0CFB1C0C1D1D1DE48291
:101C1000F5820683178383E08083248135814681A2
:101C2000578157FF1AC0C901AA2797FDA095BA2F5F
:101C300081709070A070B070569547953795279534
:101C4000822B932BA42BB52B84839583A683B783F8
:101C500082819381019693838283DF0101C0D20147
:101C6000CD01CDB7DEB7E2E10C945413A0E2B0E0B1
:101C7000ECE3FEE00C94441369837A838B839C83AA
:101C80002D833E834F835887E9E0EE2EF12CEC0E36
:101C9000FD1ECE010196B7010E9440128E010F5E1B
:101CA0001F4FCE010596B8010E9440128A8991E02B
:101CB00089278A8BC701B801AE01475E5F4F0E943A
:101CC000EA0C0E946B11A096E6E00C946013A0E26F
:101CD000B0E0EDE6FEE00C94441369837A838B83D5
:101CE0009C832D833E834F835887F9E0EF2EF12CA0
:101CF000EC0EFD1ECE010196B7010E9440128E012E
:101D00000F5E1F4FCE010596B8010E944012C70119
:101D1000B801AE01475E5F4F0E94EA0C0E946B1152
:101D2000A096E6E00C946013A0E2B0E0EAE9FEE0E1
:101D30000C94381369837A838B839C832D833E8331
:101D40004F835887CE010196BE01675F7F4F0E9487
:101D50004012CE010596BE016F5E7F4F0E94401279
:101D60009985923088F089898230C8F0943019F4CE
:101D7000823051F404C0843029F4923081F488E236
:101D800091E0C6C0923049F420E09A858A89981380
:101D900021E02A87CE010996BBC0823049F420E0B9
:101DA0009A858A89981321E02A8BCE014196B0C08A
:101DB0002D843E844F8458886D887E888F88988CC7
:101DC000EE24FF248701AA24BB24650140E050E0F3
:101DD00060E070E0E0E0F0E0C10181709070892B7C
:101DE000E9F0E60CF71C081D191D9A01AB012A0D3C
:101DF0003B1D4C1D5D1D80E090E0A0E0B0E0E614CE
:101E0000F7040805190520F481E090E0A0E0B0E0B7
:101E1000BA01A901480F591F6A1F7B1FAA0CBB1CDE
:101E2000CC1CDD1C97FE08C081E090E0A0E0B0E093
:101E3000A82AB92ACA2ADB2A3196E032F10549F0EC
:101E4000660C771C881C991C5694479437942794E9
:101E5000C3CFFA85EA892B893C898B859C85280F1D
:101E6000391F2E5F3F4F17C0CA0181709070892BB8
:101E700061F016950795F794E79480E090E0A0E074
:101E8000B0E8E82AF92A0A2B1B2B76956795579517
:101E900047952F5F3F4F77FDE7CF0CC0440F551F8D
:101EA000661F771F17FD4160EE0CFF1C001F111FFE
:101EB00021503040403090E0590790E0690790E4AD
:101EC000790760F32B8F3C8FDB01CA018F7790700D
:101ED000A070B07080349105A105B10561F447FD93
:101EE0000AC0E114F1040105110529F0405C5F4FBF
:101EF0006F4F7F4F40781A8EFE1711F081E08A8F66
:101F00004D8F5E8F6F8F78A383E0898FCE014996C6
:101F10000E946B11A096E2E10C945413A8E1B0E08A
:101F2000E4E9FFE00C94401369837A838B839C83FC
:101F30002D833E834F835887B9E0EB2EF12CEC0EB6
:101F4000FD1ECE010196B7010E9440128E010F5E68
:101F50001F4FCE010596B8010E94401229852230FC
:101F600008F47EC03989323010F4B8017CC08A850B
:101F70009A8989278A87243011F0223031F4231777
:101F800009F06EC068E271E06EC0343039F41D862D
:101F90001E861F86188A1C861B8604C0323021F4D8
:101FA00084E08987B7015FC02B853C858B899C893C
:101FB000281B390B3C872B87ED84FE840F851889FD
:101FC000AD88BE88CF88D88CEA14FB040C051D05AB
:101FD00040F4EE0CFF1C001F111F215030403C87C5
:101FE0002B8720E030E040E050E080E090E0A0E08F
:101FF000B0E460E070E0EA14FB040C051D0540F05D
:10200000282B392B4A2B5B2BEA18FB080C091D09DE
:10201000B695A79597958795EE0CFF1C001F111F8D
:102020006F5F7F4F6F31710531F7DA01C9018F772B
:102030009070A070B07080349105A105B10561F475
:1020400027FD0AC0E114F1040105110529F0205C07
:102050003F4F4F4F5F4F20782D873E874F87588BDC
:10206000BE01675F7F4FCB010E946B116896EAE06B
:102070000C945C13A8E1B0E0E0E4F0E10C944413AC
:1020800069837A838B839C832D833E834F83588718
:1020900089E0E82EF12CEC0EFD1ECE010196B70171
:1020A0000E9440128E010F5E1F4FCE010596B801AF
:1020B0000E9440128985823040F08989823028F060
:1020C000C701B8010E94B81201C08FEF6896E6E020
:1020D0000C946013A8E0B0E0E0E7F0E10C94411349
:1020E0009B01AC0183E08983DA01C9018827B7FD30
:1020F00083959927AA27BB27B82E211531054105BD
:10210000510519F482E089833AC08823A9F0203070
:1021100080E0380780E0480780E8580729F460E04D
:1021200070E080E09FEC30C0EE24FF248701E21ACB
:10213000F30A040B150B02C079018A018EE1C82E47
:10214000D12CDC82CB82ED82FE820F831887C801FE
:10215000B7010E941C1101971816190684F4082E65
:1021600004C0EE0CFF1C001F111F0A94D2F7ED8271
:10217000FE820F831887C81AD90ADC82CB82BA8202
:10218000CE0101960E946B112896E9E00C945D1334
:10219000ACE0B0E0EEECF0E10C94481369837A8394
:1021A0008B839C83CE010196BE016B5F7F4F0E94A3
:1021B00040128D81823061F1823050F1843021F4FF
:1021C0008E81882351F12EC02F81388537FD20C0A4
:1021D0006E812F3131051CF06623F9F023C08EE1AA
:1021E00090E0821B930B29853A854B855C8504C062
:1021F00056954795379527958A95D2F76623B1F07E
:1022000050954095309521953F4F4F4F5F4F0EC0F1
:1022100020E030E040E050E009C02FEF3FEF4FEF0B
:102220005FE704C020E030E040E050E8B901CA01B7
:102230002C96E2E00C946413EF92FF920F931F939D
:102240007B018C0180E0E81680E0F80681E0080759
:1022500080E0180788F48FEFE816F10401051105F6
:1022600031F028F088E090E0A0E0B0E017C080E016
:1022700090E0A0E0B0E012C080E0E81680E0F80650
:1022800080E0080781E0180728F088E190E0A0E0EE
:10229000B0E004C080E190E0A0E0B0E020E230E0F7
:1022A00040E050E0281B390B4A0B5B0B04C016952D
:1022B0000795F794E7948A95D2F7F701E05DFE4F12
:1022C0008081281B310941095109C9011F910F91D2
:1022D000FF90EF900895DF92EF92FF920F931F937C
:1022E000FC01E480F58006811781D18080818230F5
:1022F00048F480E090E0A0E1B0E0E82AF92A0A2B57
:102300001B2BA5C0843009F49FC0823021F4EE2439
:10231000FF24870105C0E114F1040105110519F43A
:10232000E0E0F0E096C0628173819FEF6238790748
:102330000CF05BC022E83FEF261B370B2A3131053A
:102340002CF020E030E040E050E02AC0B801A701C6
:10235000022E04C076956795579547950A94D2F753
:1023600081E090E0A0E0B0E004C0880F991FAA1FB0
:10237000BB1F2A95D2F70197A109B1098E219F2190
:10238000A023B1230097A105B10521F081E090E0E1
:10239000A0E0B0E09A01AB01282B392B4A2B5B2B34
:1023A000DA01C9018F779070A070B0708034910508
:1023B000A105B10539F427FF09C0205C3F4F4F4FFD
:1023C0005F4F04C0215C3F4F4F4F5F4FE0E0F0E0B4
:1023D0002030A0E03A07A0E04A07A0E45A0710F036
:1023E000E1E0F0E079018A0127C06038710564F509
:1023F000FB01E158FF4FD801C7018F779070A070A3
:10240000B07080349105A105B10539F4E7FE0DC027
:1024100080E490E0A0E0B0E004C08FE390E0A0E0B2
:10242000B0E0E80EF91E0A1F1B1F17FF05C0169526
:102430000795F794E794319687E016950795F794FA
:10244000E7948A95D1F705C0EE24FF248701EFEFCA
:10245000F0E06E2F679566276795902F9F77D7944A
:10246000DD24D7948E2F8695492F462B582F5D2932
:10247000B701CA011F910F91FF90EF90DF9008956F
:10248000FC01DB01408151812281622F6F7770E076
:10249000221F2227221F9381892F880F822B282F0A
:1024A00030E0991F9927991F11969C931197211538
:1024B0003105A9F5411551056105710511F482E059
:1024C00037C082E89FEF13969C938E9312979A01E0
:1024D000AB0167E0220F331F441F551F6A95D1F7E8
:1024E00083E08C930DC0220F331F441F551F12969B
:1024F0008D919C911397019713969C938E931297AD
:10250000203080E0380780E0480780E4580758F31F
:1025100014962D933D934D935C93179708952F3FF9
:10252000310579F4411551056105710519F484E00F
:102530008C93089564FF03C081E08C9312C01C92B9
:1025400010C02F57304013963C932E93129783E080
:102550008C9387E0440F551F661F771F8A95D1F72C
:10256000706414964D935D936D937C9317970895C3
:102570001F93DC01FB019C91923008F447C08081DD
:10258000823008F443C0943051F411961C91843089
:1025900099F58181682F70E0611B71093FC084301B
:1025A00021F0923031F48230B9F18181882389F1B0
:1025B0002DC011961C9111978230F1F0818118176E
:1025C000D9F412962D913C911397828193818217B1
:1025D000930794F028173907BCF014968D919D91BC
:1025E0000D90BC91A02D24813581468157812817FB
:1025F00039074A075B0718F4112341F00AC0821714
:102600009307A407B50740F4112319F061E070E0C7
:1026100005C06FEF7FEF02C060E070E0CB011F915B
:10262000089597FB092E07260AD077FD04D00CD019
:1026300006D000201AF4709561957F4F0895F6F743
:10264000909581959F4F0895AA1BBB1B51E107C030
:10265000AA1FBB1FA617B70710F0A61BB70B881F32
:10266000991F5A95A9F780959095BC01CD010895C1
:102670002F923F924F925F926F927F928F929F9292
:10268000AF92BF92CF92DF92EF92FF920F931F9380
:10269000CF93DF93CDB7DEB7CA1BDB0B0FB6F89431
:1026A000DEBF0FBECDBF09942A88398848885F8471
:1026B0006E847D848C849B84AA84B984C884DF80E2
:1026C000EE80FD800C811B81AA81B981CE0FD11DC6
:1026D0000FB6F894DEBF0FBECDBFED010895AF92E7
:1026E000BF92CF92DF92EF92FF920F931F93CF93FF
:1026F000DF93EC01A880B980CA80DB80A114B1040B
:10270000C104D10441F484E2A82E89EDB82E8BE5F2
:10271000C82E87E0D82EC601B5012DE133EF41E088
:1027200050E00E94A91627EA31E440E050E00E9400
:102730008A167B018C01C601B5012DE133EF41E022
:1027400050E00E94A916CA01B9012CEE34EF4FEFF8
:102750005FEF0E948A166E0D7F1D801F911F97FFED
:1027600004C06150704080409048688379838A83B8
:102770009B839B013F77C901DF91CF911F910F91FF
:10278000FF90EF90DF90CF90BF90AF9008950E94A0
:102790006F13089580E392E00E946F130895A0E004
:1027A000B0E08093300290933102A0933202B09354
:1027B00033020895FB01DC010D900020E9F7119729
:1027C00001900D920020E1F70895F8D058F080E8CC
:1027D00091E009F49EEFF9D028F040E851E059F477
:1027E0005EEF09C0C3C064C1E92FE0783FD168F350
:1027F000092E052AC1F3261737074807590738F06D
:102800000E2E07F8E02569F0E025E0640AC0EF63CA
:1028100007F8009407FADB01B9019D01DC01CA0148
:10282000AD01EF9344D000D10AD05F91552331F030
:102830002BED3FE049E450FD49EC49CA0895DF9390
:10284000DD27B92FBF7740E85FE316161706480764
:102850005B0710F4D92F33D19F938F937F936F939E
:10286000BCD1E8E9F0E085D0DFD02F913F914F91C6
:102870005F9136D1DD2349F09058A2EA2AED3FE07E
:1028800049EC5FE3D0785D27B8D1DF91CDC0A5D00A
:10289000E395DBC09AD040F091D030F021F45F3F57
:1028A00019F05EC0511105C161C0E0D098F39923C1
:1028B000C9F35523B1F3951B550BBB27AA27621704
:1028C0007307840738F09F5F5F4F220F331F441F49
:1028D000AA1FA9F333D00E2E3AF0E0E830D0915081
:1028E0005040E695001CCAF729D0FE2F27D0660F6E
:1028F000771F881FBB1F261737074807AB07B0E8AD
:1029000009F0BB0B802DBF01FF2793585F4F2AF0C2
:102910009E3F510568F024C0CCC05F3FECF3983E69
:10292000DCF3869577956795B795F7959F5FC9F71F
:10293000880F911D9695879597F90895E1E0660FA8
:10294000771F881FBB1F621773078407BA0720F021
:10295000621B730B840BBA0BEE1F88F7E09508958A
:1029600097F99F6780E870E060E008959FEF80EC42
:102970000895DF93CF931F930F93FF92EF92DF920F
:102980007B018C01689405C0DA2EEF01A9D0FE010D
:10299000E894A5912591359145915591AEF3EF01BC
:1029A0002CD1FE019701A801DA9479F7DF90EF901E
:1029B000FF900F911F91CF91DF91089500240A9409
:1029C0001616170618060906089500240A9412160A
:1029D0001306140605060895C9CF50D0E8F3E8940D
:1029E000E0E0BB279F57F0F02AED3FE049EC06C03E
:1029F000EE0FBB0F661F771F881F28F0B23A6207E1
:102A00007307840728F0B25A620B730B840BE395AB
:102A10009A9572F7803830F49A95BB0F661F771F2E
:102A2000881FD2F7904859C1092E0394000C11F465
:102A3000882352F0BB0F40F4BF2B11F460FF04C099
:102A40006F5F7F4F8F4F9F4F0895EF93E0FF06C05A
:102A5000A2EA2AED3FE049EC5FEBCFD0E5DF0F9033
:102A6000039401FC9058E5ECF0E043C157FD905809
:102A7000440F551F59F05F3F71F04795880F97FB42
:102A8000991F61F09F3F79F08795089512161306FC
:102A90001406551FF2CF4695F1DF08C0161617062B
:102AA0001806991FF1CF8695710561050894089560
:102AB000E894BB2766277727CB0197F908959B01F8
:102AC000AC0160E070E080E89FE328CA77DF28F07F
:102AD0007CDF18F0952309F043CF48CF1124E9CFCC
:102AE000C5DFA0F3959FD1F3950F50E0551F629F6E
:102AF000F001729FBB27F00DB11D639FAA27F00D57
:102B0000B11DAA1F649F6627B00DA11D661F829F7D
:102B10002227B00DA11D621F739FB00DA11D621F62
:102B2000839FA00D611D221F749F3327A00D611D7F
:102B3000231F849F600D211D822F762F6A2F112461
:102B40009F5750408AF0E1F088234AF0EE0FFF1FB4
:102B5000BB1F661F771F881F91505040A9F79E3FEB
:102B6000510570F0FDCEA5CF5F3FECF3983EDCF34E
:102B7000869577956795B795F795E7959F5FC1F728
:102B8000FE2B880F911D9695879597F9089576DF0E
:102B9000E0F09E37D8F09639B8F49E3848F4672FA5
:102BA000782F8827985FF9CF8695779567959395C5
:102BB0009539D0F3B62FB1706B0F711D811D20F4C4
:102BC00087957795679593956BC085C072CF9F93D6
:102BD00004DF0F9007FCEE5F38CF9B01AC01A4C867
:102BE000EDDE30F0F2DE20F031F49F3F11F41EF400
:102BF000BDCE0EF4E095E7FBB3CEE92F37DF80F3CF
:102C0000BA17620773078407950718F071F49EF5E9
:102C10004FCF0EF4E0950B2EBA2FA02D0B01B9016A
:102C200090010C01CA01A0011124FF27591B99F042
:102C3000593F50F4503E68F11A16F040A22F232F4E
:102C4000342F4427585FF3CF469537952795A7959E
:102C5000F0405395C9F77EF41F16BA0B620B730B45
:102C6000840BBAF09150A1F0FF0FBB1F661F771FB6
:102C7000881FC2F70EC0BA0F621F731F841F48F46B
:102C8000879577956795B795F7959E3F08F0B3CFF1
:102C90009395880F08F09927EE0F979587950895DB
:102CA000882371F4772321F09850872B762F07C063
:102CB000662311F499270DC09051862B70E060E0D7
:102CC0002AF09A95660F771F881FDAF7880F969576
:102CD000879597F908959F3F31F0915020F487959B
:102CE00077956795B795880F911D9695879597F974
:102CF00008959F938F937F936F93FF93EF939B011F
:102D0000AC0112D8EF91FF9134DE2F913F914F919A
:102D10005F910AC8629FD001739FF001829FE00D0E
:102D2000F11D649FE00DF11D929FF00D839FF00D4A
:102D3000749FF00D659FF00D9927729FB00DE11DF6
:102D4000F91F639FB00DE11DF91FBD01CF011124D3
:102D5000089597FB092E05260ED057FD04D014D0F8
:102D60000AD0001C38F450954095309521953F4F7E
:102D70004F4F5F4F0895F6F7909580957095619548
:102D80007F4F8F4F9F4F0895A1E21A2EAA1BBB1BA6
:102D9000FD010DC0AA1FBB1FEE1FFF1FA217B30727
:102DA000E407F50720F0A21BB30BE40BF50B661F3D
:102DB000771F881F991F1A9469F760957095809501
:102DC00090959B01AC01BD01CF010895F894FFCF10
:102DD00030303030303030300047414D45204F5694
:102DE0004552212053434F52453A256400120000BA
:102DF00034433200320001040000000000000000F3
:102E00000001020203030303040404040404040491
:102E10000505050505050505050505050505050562
:102E20000606060606060606060606060606060642
:102E30000606060606060606060606060606060632
:102E40000707070707070707070707070707070712
:102E50000707070707070707070707070707070702
:102E600007070707070707070707070707070707F2
:102E700007070707070707070707070707070707E2
:102E800008080808080808080808080808080808C2
:102E900008080808080808080808080808080808B2
:102EA00008080808080808080808080808080808A2
:102EB0000808080808080808080808080808080892
:102EC0000808080808080808080808080808080882
:102ED0000808080808080808080808080808080872
:102EE0000808080808080808080808080808080862
:102EF0000808080808080808080808080808080852
:042F000001000000CC
:00000001FF
